{"contracts/SpendLimitWallet.sol":{"SpendLimitWallet":{"abi":[{"inputs":[{"internalType":"uint256","name":"_dailyLimit","type":"uint256"},{"internalType":"uint256","name":"_windowDuration","type":"uint256"}],"stateMutability":"nonpayable","type":"constructor"},{"inputs":[{"internalType":"uint256","name":"requested","type":"uint256"},{"internalType":"uint256","name":"available","type":"uint256"}],"name":"InsufficientBalance","type":"error"},{"inputs":[],"name":"InvalidRecipient","type":"error"},{"inputs":[{"internalType":"uint256","name":"requested","type":"uint256"},{"internalType":"uint256","name":"remaining","type":"uint256"}],"name":"LimitExceeded","type":"error"},{"inputs":[],"name":"NotOwner","type":"error"},{"inputs":[],"name":"ZeroAmount","type":"error"},{"inputs":[],"name":"ZeroLimit","type":"error"},{"anonymous":false,"inputs":[{"indexed":true,"internalType":"address","name":"from","type":"address"},{"indexed":false,"internalType":"uint256","name":"amount","type":"uint256"}],"name":"Deposited","type":"event"},{"anonymous":false,"inputs":[{"indexed":false,"internalType":"uint256","name":"oldLimit","type":"uint256"},{"indexed":false,"internalType":"uint256","name":"newLimit","type":"uint256"}],"name":"LimitUpdated","type":"event"},{"anonymous":false,"inputs":[{"indexed":true,"internalType":"address","name":"to","type":"address"},{"indexed":false,"internalType":"uint256","name":"amount","type":"uint256"},{"indexed":false,"internalType":"string","name":"description","type":"string"},{"indexed":false,"internalType":"uint256","name":"spentTotal","type":"uint256"},{"indexed":false,"internalType":"uint256","name":"remaining","type":"uint256"}],"name":"SpendApproved","type":"event"},{"anonymous":false,"inputs":[{"indexed":true,"internalType":"address","name":"to","type":"address"},{"indexed":false,"internalType":"uint256","name":"amount","type":"uint256"},{"indexed":false,"internalType":"string","name":"description","type":"string"},{"indexed":false,"internalType":"string","name":"reason","type":"string"}],"name":"SpendRejected","type":"event"},{"anonymous":false,"inputs":[{"indexed":false,"internalType":"uint256","name":"newWindowStart","type":"uint256"},{"indexed":false,"internalType":"uint256","name":"previousSpent","type":"uint256"}],"name":"WindowReset","type":"event"},{"inputs":[],"name":"currentState","outputs":[{"internalType":"enum SpendLimitWallet.State","name":"","type":"uint8"}],"stateMutability":"view","type":"function"},{"inputs":[],"name":"dailyLimit","outputs":[{"internalType":"uint256","name":"","type":"uint256"}],"stateMutability":"view","type":"function"},{"inputs":[],"name":"deposit","outputs":[],"stateMutability":"payable","type":"function"},{"inputs":[],"name":"getWindowInfo","outputs":[{"internalType":"uint256","name":"spent","type":"uint256"},{"internalType":"uint256","name":"remaining","type":"uint256"},{"internalType":"uint256","name":"windowEndsAt","type":"uint256"},{"internalType":"enum SpendLimitWallet.State","name":"state","type":"uint8"},{"internalType":"uint256","name":"balance","type":"uint256"}],"stateMutability":"view","type":"function"},{"inputs":[],"name":"isWindowExpired","outputs":[{"internalType":"bool","name":"","type":"bool"}],"stateMutability":"view","type":"function"},{"inputs":[],"name":"owner","outputs":[{"internalType":"address","name":"","type":"address"}],"stateMutability":"view","type":"function"},{"inputs":[{"internalType":"address payable","name":"to","type":"address"},{"internalType":"uint256","name":"amount","type":"uint256"},{"internalType":"string","name":"description","type":"string"}],"name":"spend","outputs":[],"stateMutability":"nonpayable","type":"function"},{"inputs":[],"name":"spentInWindow","outputs":[{"internalType":"uint256","name":"","type":"uint256"}],"stateMutability":"view","type":"function"},{"inputs":[{"internalType":"uint256","name":"newLimit","type":"uint256"}],"name":"updateLimit","outputs":[],"stateMutability":"nonpayable","type":"function"},{"inputs":[],"name":"windowDuration","outputs":[{"internalType":"uint256","name":"","type":"uint256"}],"stateMutability":"view","type":"function"},{"inputs":[],"name":"windowStart","outputs":[{"internalType":"uint256","name":"","type":"uint256"}],"stateMutability":"view","type":"function"},{"stateMutability":"payable","type":"receive"}],"evm":{"bytecode":{"linkReferences":{},"object":"608060405234801561001057600080fd5b5060405161092b38038061092b83398101604081905261002f91610083565b81600003610050576040516396cb8a7f60e01b815260040160405180910390fd5b600080546001600160a01b03191633179055600182905580156100735780610078565b620151805b600255506100a79050565b6000806040838503121561009657600080fd5b505080516020909101519092909150565b610875806100b66000396000f3fe6080604052600436106100a05760003560e01c80638da5cb5b116100645780638da5cb5b1461018e578063b0c2783a146101c6578063b2f398d1146101dc578063d0e30db014610201578063db1f237f14610209578063fae0959a1461021f57600080fd5b80630c3f6acf146100e15780633a231a581461010c5780635c11ff7a1461013257806367eeba0c146101565780636e3f57641461016c57600080fd5b366100dc5760405134815233907f2da466a7b24304f47e87fa2e1e5a81b9831ce54fec19055ce277ca2f39ba42c49060200160405180910390a2005b600080fd5b3480156100ed57600080fd5b506100f661023f565b6040516101039190610668565b60405180910390f35b34801561011857600080fd5b50610121610277565b60405161010395949392919061067c565b34801561013e57600080fd5b5061014860025481565b604051908152602001610103565b34801561016257600080fd5b5061014860015481565b34801561017857600080fd5b5061018c6101873660046106ae565b610309565b005b34801561019a57600080fd5b506000546101ae906001600160a01b031681565b6040516001600160a01b039091168152602001610103565b3480156101d257600080fd5b5061014860045481565b3480156101e857600080fd5b506101f1610558565b6040519015158152602001610103565b61018c610582565b34801561021557600080fd5b5061014860035481565b34801561022b57600080fd5b5061018c61023a366004610743565b6105b9565b6000600354600014806102555750610255610558565b156102605750600090565b600154600354106102715750600290565b50600190565b600080600080600080610288610558565b905080806102965750600354155b6102a2576003546102a5565b60005b955085600154116102b75760006102c5565b856001546102c59190610772565b945060006004541180156102d7575080155b6102e25760006102f2565b6002546004546102f29190610785565b93506102fc61023f565b9250479150509091929394565b6000546001600160a01b03163314610334576040516330cd747160e01b815260040160405180910390fd5b6001600160a01b03841661035b57604051634e46966960e11b815260040160405180910390fd5b8260000361037c57604051631f2a200560e01b815260040160405180910390fd5b478311156103ab5760405163cf47918160e01b8152600481018490524760248201526044015b60405180910390fd5b6103b3610558565b80156103c157506000600354115b1561040e576003546040805142815260208101929092527f50d926d13f7e01d114aa79ad3d8eb3dc4e0d60d51713f8634e9a4a088e0a45b5910160405180910390a1600060038190556004555b60045460000361041d57426004555b60008360035461042d9190610785565b90506001548111156104b557600060035460015461044b9190610772565b9050856001600160a01b03167f3e53416dc73490ccd0b17d9b7d230b4dbb731911f89d5306d5356df5a6322c5e86868660405161048a939291906107c1565b60405180910390a2604051634779077960e11b815260048101869052602481018290526044016103a2565b60038190556001546000906104cb908390610772565b6040519091506001600160a01b0387169086156108fc029087906000818181858888f19350505050158015610504573d6000803e3d6000fd5b50856001600160a01b03167fa8abdfca1a6436f807a651fcb470bbe959a893c36ed764ba2168b0b04bc3b5c786868660035486604051610548959493929190610811565b60405180910390a2505050505050565b600060045460000361056a5750600190565b60025460045461057a9190610785565b421015905090565b60405134815233907f2da466a7b24304f47e87fa2e1e5a81b9831ce54fec19055ce277ca2f39ba42c49060200160405180910390a2565b6000546001600160a01b031633146105e4576040516330cd747160e01b815260040160405180910390fd5b80600003610605576040516396cb8a7f60e01b815260040160405180910390fd5b60015460408051918252602082018390527f5857c36c84b5a997b303d2520c6d7f84ad6f68ebbaa63b916b470be6d3721a8b910160405180910390a1600155565b6003811061066457634e487b7160e01b600052602160045260246000fd5b9052565b602081016106768284610646565b92915050565b858152602081018590526040810184905260a0810161069e6060830185610646565b8260808301529695505050505050565b600080600080606085870312156106c457600080fd5b84356001600160a01b03811681146106db57600080fd5b935060208501359250604085013567ffffffffffffffff808211156106ff57600080fd5b818701915087601f83011261071357600080fd5b81358181111561072257600080fd5b88602082850101111561073457600080fd5b95989497505060200194505050565b60006020828403121561075557600080fd5b5035919050565b634e487b7160e01b600052601160045260246000fd5b818103818111156106765761067661075c565b808201808211156106765761067661075c565b81835281816020850137506000828201602090810191909152601f909101601f19169091010190565b8381526060602082015260006107db606083018486610798565b828103604093840152601481527311185a5b1e481b1a5b5a5d08195e18d95959195960621b602082015291909101949350505050565b85815260806020820152600061082b608083018688610798565b60408301949094525060600152939250505056fea26469706673582212203eb66a67d85021f20175ffd3a0feb8b4e8f08b66f45cf29ae2d2df228927b68164736f6c63430008140033","opcodes":"PUSH1 0x80 PUSH1 0x40 MSTORE CALLVALUE DUP1 ISZERO PUSH2 0x10 JUMPI PUSH1 0x0 DUP1 REVERT JUMPDEST POP PUSH1 0x40 MLOAD PUSH2 0x92B CODESIZE SUB DUP1 PUSH2 0x92B DUP4 CODECOPY DUP2 ADD PUSH1 0x40 DUP2 SWAP1 MSTORE PUSH2 0x2F SWAP2 PUSH2 0x83 JUMP JUMPDEST DUP2 PUSH1 0x0 SUB PUSH2 0x50 JUMPI PUSH1 0x40 MLOAD PUSH4 0x96CB8A7F PUSH1 0xE0 SHL DUP2 MSTORE PUSH1 0x4 ADD PUSH1 0x40 MLOAD DUP1 SWAP2 SUB SWAP1 REVERT JUMPDEST PUSH1 0x0 DUP1 SLOAD PUSH1 0x1 PUSH1 0x1 PUSH1 0xA0 SHL SUB NOT AND CALLER OR SWAP1 SSTORE PUSH1 0x1 DUP3 SWAP1 SSTORE DUP1 ISZERO PUSH2 0x73 JUMPI DUP1 PUSH2 0x78 JUMP JUMPDEST PUSH3 0x15180 JUMPDEST PUSH1 0x2 SSTORE POP PUSH2 0xA7 SWAP1 POP JUMP JUMPDEST PUSH1 0x0 DUP1 PUSH1 0x40 DUP4 DUP6 SUB SLT ISZERO PUSH2 0x96 JUMPI PUSH1 0x0 DUP1 REVERT JUMPDEST POP POP DUP1 MLOAD PUSH1 0x20 SWAP1 SWAP2 ADD MLOAD SWAP1 SWAP3 SWAP1 SWAP2 POP JUMP JUMPDEST PUSH2 0x875 DUP1 PUSH2 0xB6 PUSH1 0x0 CODECOPY PUSH1 0x0 RETURN INVALID PUSH1 0x80 PUSH1 0x40 MSTORE PUSH1 0x4 CALLDATASIZE LT PUSH2 0xA0 JUMPI PUSH1 0x0 CALLDATALOAD PUSH1 0xE0 SHR DUP1 PUSH4 0x8DA5CB5B GT PUSH2 0x64 JUMPI DUP1 PUSH4 0x8DA5CB5B EQ PUSH2 0x18E JUMPI DUP1 PUSH4 0xB0C2783A EQ PUSH2 0x1C6 JUMPI DUP1 PUSH4 0xB2F398D1 EQ PUSH2 0x1DC JUMPI DUP1 PUSH4 0xD0E30DB0 EQ PUSH2 0x201 JUMPI DUP1 PUSH4 0xDB1F237F EQ PUSH2 0x209 JUMPI DUP1 PUSH4 0xFAE0959A EQ PUSH2 0x21F JUMPI PUSH1 0x0 DUP1 REVERT JUMPDEST DUP1 PUSH4 0xC3F6ACF EQ PUSH2 0xE1 JUMPI DUP1 PUSH4 0x3A231A58 EQ PUSH2 0x10C JUMPI DUP1 PUSH4 0x5C11FF7A EQ PUSH2 0x132 JUMPI DUP1 PUSH4 0x67EEBA0C EQ PUSH2 0x156 JUMPI DUP1 PUSH4 0x6E3F5764 EQ PUSH2 0x16C JUMPI PUSH1 0x0 DUP1 REVERT JUMPDEST CALLDATASIZE PUSH2 0xDC JUMPI PUSH1 0x40 MLOAD CALLVALUE DUP2 MSTORE CALLER SWAP1 PUSH32 0x2DA466A7B24304F47E87FA2E1E5A81B9831CE54FEC19055CE277CA2F39BA42C4 SWAP1 PUSH1 0x20 ADD PUSH1 0x40 MLOAD DUP1 SWAP2 SUB SWAP1 LOG2 STOP JUMPDEST PUSH1 0x0 DUP1 REVERT JUMPDEST CALLVALUE DUP1 ISZERO PUSH2 0xED JUMPI PUSH1 0x0 DUP1 REVERT JUMPDEST POP PUSH2 0xF6 PUSH2 0x23F JUMP JUMPDEST PUSH1 0x40 MLOAD PUSH2 0x103 SWAP2 SWAP1 PUSH2 0x668 JUMP JUMPDEST PUSH1 0x40 MLOAD DUP1 SWAP2 SUB SWAP1 RETURN JUMPDEST CALLVALUE DUP1 ISZERO PUSH2 0x118 JUMPI PUSH1 0x0 DUP1 REVERT JUMPDEST POP PUSH2 0x121 PUSH2 0x277 JUMP JUMPDEST PUSH1 0x40 MLOAD PUSH2 0x103 SWAP6 SWAP5 SWAP4 SWAP3 SWAP2 SWAP1 PUSH2 0x67C JUMP JUMPDEST CALLVALUE DUP1 ISZERO PUSH2 0x13E JUMPI PUSH1 0x0 DUP1 REVERT JUMPDEST POP PUSH2 0x148 PUSH1 0x2 SLOAD DUP2 JUMP JUMPDEST PUSH1 0x40 MLOAD SWAP1 DUP2 MSTORE PUSH1 0x20 ADD PUSH2 0x103 JUMP JUMPDEST CALLVALUE DUP1 ISZERO PUSH2 0x162 JUMPI PUSH1 0x0 DUP1 REVERT JUMPDEST POP PUSH2 0x148 PUSH1 0x1 SLOAD DUP2 JUMP JUMPDEST CALLVALUE DUP1 ISZERO PUSH2 0x178 JUMPI PUSH1 0x0 DUP1 REVERT JUMPDEST POP PUSH2 0x18C PUSH2 0x187 CALLDATASIZE PUSH1 0x4 PUSH2 0x6AE JUMP JUMPDEST PUSH2 0x309 JUMP JUMPDEST STOP JUMPDEST CALLVALUE DUP1 ISZERO PUSH2 0x19A JUMPI PUSH1 0x0 DUP1 REVERT JUMPDEST POP PUSH1 0x0 SLOAD PUSH2 0x1AE SWAP1 PUSH1 0x1 PUSH1 0x1 PUSH1 0xA0 SHL SUB AND DUP2 JUMP JUMPDEST PUSH1 0x40 MLOAD PUSH1 0x1 PUSH1 0x1 PUSH1 0xA0 SHL SUB SWAP1 SWAP2 AND DUP2 MSTORE PUSH1 0x20 ADD PUSH2 0x103 JUMP JUMPDEST CALLVALUE DUP1 ISZERO PUSH2 0x1D2 JUMPI PUSH1 0x0 DUP1 REVERT JUMPDEST POP PUSH2 0x148 PUSH1 0x4 SLOAD DUP2 JUMP JUMPDEST CALLVALUE DUP1 ISZERO PUSH2 0x1E8 JUMPI PUSH1 0x0 DUP1 REVERT JUMPDEST POP PUSH2 0x1F1 PUSH2 0x558 JUMP JUMPDEST PUSH1 0x40 MLOAD SWAP1 ISZERO ISZERO DUP2 MSTORE PUSH1 0x20 ADD PUSH2 0x103 JUMP JUMPDEST PUSH2 0x18C PUSH2 0x582 JUMP JUMPDEST CALLVALUE DUP1 ISZERO PUSH2 0x215 JUMPI PUSH1 0x0 DUP1 REVERT JUMPDEST POP PUSH2 0x148 PUSH1 0x3 SLOAD DUP2 JUMP JUMPDEST CALLVALUE DUP1 ISZERO PUSH2 0x22B JUMPI PUSH1 0x0 DUP1 REVERT JUMPDEST POP PUSH2 0x18C PUSH2 0x23A CALLDATASIZE PUSH1 0x4 PUSH2 0x743 JUMP JUMPDEST PUSH2 0x5B9 JUMP JUMPDEST PUSH1 0x0 PUSH1 0x3 SLOAD PUSH1 0x0 EQ DUP1 PUSH2 0x255 JUMPI POP PUSH2 0x255 PUSH2 0x558 JUMP JUMPDEST ISZERO PUSH2 0x260 JUMPI POP PUSH1 0x0 SWAP1 JUMP JUMPDEST PUSH1 0x1 SLOAD PUSH1 0x3 SLOAD LT PUSH2 0x271 JUMPI POP PUSH1 0x2 SWAP1 JUMP JUMPDEST POP PUSH1 0x1 SWAP1 JUMP JUMPDEST PUSH1 0x0 DUP1 PUSH1 0x0 DUP1 PUSH1 0x0 DUP1 PUSH2 0x288 PUSH2 0x558 JUMP JUMPDEST SWAP1 POP DUP1 DUP1 PUSH2 0x296 JUMPI POP PUSH1 0x3 SLOAD ISZERO JUMPDEST PUSH2 0x2A2 JUMPI PUSH1 0x3 SLOAD PUSH2 0x2A5 JUMP JUMPDEST PUSH1 0x0 JUMPDEST SWAP6 POP DUP6 PUSH1 0x1 SLOAD GT PUSH2 0x2B7 JUMPI PUSH1 0x0 PUSH2 0x2C5 JUMP JUMPDEST DUP6 PUSH1 0x1 SLOAD PUSH2 0x2C5 SWAP2 SWAP1 PUSH2 0x772 JUMP JUMPDEST SWAP5 POP PUSH1 0x0 PUSH1 0x4 SLOAD GT DUP1 ISZERO PUSH2 0x2D7 JUMPI POP DUP1 ISZERO JUMPDEST PUSH2 0x2E2 JUMPI PUSH1 0x0 PUSH2 0x2F2 JUMP JUMPDEST PUSH1 0x2 SLOAD PUSH1 0x4 SLOAD PUSH2 0x2F2 SWAP2 SWAP1 PUSH2 0x785 JUMP JUMPDEST SWAP4 POP PUSH2 0x2FC PUSH2 0x23F JUMP JUMPDEST SWAP3 POP SELFBALANCE SWAP2 POP POP SWAP1 SWAP2 SWAP3 SWAP4 SWAP5 JUMP JUMPDEST PUSH1 0x0 SLOAD PUSH1 0x1 PUSH1 0x1 PUSH1 0xA0 SHL SUB AND CALLER EQ PUSH2 0x334 JUMPI PUSH1 0x40 MLOAD PUSH4 0x30CD7471 PUSH1 0xE0 SHL DUP2 MSTORE PUSH1 0x4 ADD PUSH1 0x40 MLOAD DUP1 SWAP2 SUB SWAP1 REVERT JUMPDEST PUSH1 0x1 PUSH1 0x1 PUSH1 0xA0 SHL SUB DUP5 AND PUSH2 0x35B JUMPI PUSH1 0x40 MLOAD PUSH4 0x4E469669 PUSH1 0xE1 SHL DUP2 MSTORE PUSH1 0x4 ADD PUSH1 0x40 MLOAD DUP1 SWAP2 SUB SWAP1 REVERT JUMPDEST DUP3 PUSH1 0x0 SUB PUSH2 0x37C JUMPI PUSH1 0x40 MLOAD PUSH4 0x1F2A2005 PUSH1 0xE0 SHL DUP2 MSTORE PUSH1 0x4 ADD PUSH1 0x40 MLOAD DUP1 SWAP2 SUB SWAP1 REVERT JUMPDEST SELFBALANCE DUP4 GT ISZERO PUSH2 0x3AB JUMPI PUSH1 0x40 MLOAD PUSH4 0xCF479181 PUSH1 0xE0 SHL DUP2 MSTORE PUSH1 0x4 DUP2 ADD DUP5 SWAP1 MSTORE SELFBALANCE PUSH1 0x24 DUP3 ADD MSTORE PUSH1 0x44 ADD JUMPDEST PUSH1 0x40 MLOAD DUP1 SWAP2 SUB SWAP1 REVERT JUMPDEST PUSH2 0x3B3 PUSH2 0x558 JUMP JUMPDEST DUP1 ISZERO PUSH2 0x3C1 JUMPI POP PUSH1 0x0 PUSH1 0x3 SLOAD GT JUMPDEST ISZERO PUSH2 0x40E JUMPI PUSH1 0x3 SLOAD PUSH1 0x40 DUP1 MLOAD TIMESTAMP DUP2 MSTORE PUSH1 0x20 DUP2 ADD SWAP3 SWAP1 SWAP3 MSTORE PUSH32 0x50D926D13F7E01D114AA79AD3D8EB3DC4E0D60D51713F8634E9A4A088E0A45B5 SWAP2 ADD PUSH1 0x40 MLOAD DUP1 SWAP2 SUB SWAP1 LOG1 PUSH1 0x0 PUSH1 0x3 DUP2 SWAP1 SSTORE PUSH1 0x4 SSTORE JUMPDEST PUSH1 0x4 SLOAD PUSH1 0x0 SUB PUSH2 0x41D JUMPI TIMESTAMP PUSH1 0x4 SSTORE JUMPDEST PUSH1 0x0 DUP4 PUSH1 0x3 SLOAD PUSH2 0x42D SWAP2 SWAP1 PUSH2 0x785 JUMP JUMPDEST SWAP1 POP PUSH1 0x1 SLOAD DUP2 GT ISZERO PUSH2 0x4B5 JUMPI PUSH1 0x0 PUSH1 0x3 SLOAD PUSH1 0x1 SLOAD PUSH2 0x44B SWAP2 SWAP1 PUSH2 0x772 JUMP JUMPDEST SWAP1 POP DUP6 PUSH1 0x1 PUSH1 0x1 PUSH1 0xA0 SHL SUB AND PUSH32 0x3E53416DC73490CCD0B17D9B7D230B4DBB731911F89D5306D5356DF5A6322C5E DUP7 DUP7 DUP7 PUSH1 0x40 MLOAD PUSH2 0x48A SWAP4 SWAP3 SWAP2 SWAP1 PUSH2 0x7C1 JUMP JUMPDEST PUSH1 0x40 MLOAD DUP1 SWAP2 SUB SWAP1 LOG2 PUSH1 0x40 MLOAD PUSH4 0x47790779 PUSH1 0xE1 SHL DUP2 MSTORE PUSH1 0x4 DUP2 ADD DUP7 SWAP1 MSTORE PUSH1 0x24 DUP2 ADD DUP3 SWAP1 MSTORE PUSH1 0x44 ADD PUSH2 0x3A2 JUMP JUMPDEST PUSH1 0x3 DUP2 SWAP1 SSTORE PUSH1 0x1 SLOAD PUSH1 0x0 SWAP1 PUSH2 0x4CB SWAP1 DUP4 SWAP1 PUSH2 0x772 JUMP JUMPDEST PUSH1 0x40 MLOAD SWAP1 SWAP2 POP PUSH1 0x1 PUSH1 0x1 PUSH1 0xA0 SHL SUB DUP8 AND SWAP1 DUP7 ISZERO PUSH2 0x8FC MUL SWAP1 DUP8 SWAP1 PUSH1 0x0 DUP2 DUP2 DUP2 DUP6 DUP9 DUP9 CALL SWAP4 POP POP POP POP ISZERO DUP1 ISZERO PUSH2 0x504 JUMPI RETURNDATASIZE PUSH1 0x0 DUP1 RETURNDATACOPY RETURNDATASIZE PUSH1 0x0 REVERT JUMPDEST POP DUP6 PUSH1 0x1 PUSH1 0x1 PUSH1 0xA0 SHL SUB AND PUSH32 0xA8ABDFCA1A6436F807A651FCB470BBE959A893C36ED764BA2168B0B04BC3B5C7 DUP7 DUP7 DUP7 PUSH1 0x3 SLOAD DUP7 PUSH1 0x40 MLOAD PUSH2 0x548 SWAP6 SWAP5 SWAP4 SWAP3 SWAP2 SWAP1 PUSH2 0x811 JUMP JUMPDEST PUSH1 0x40 MLOAD DUP1 SWAP2 SUB SWAP1 LOG2 POP POP POP POP POP POP JUMP JUMPDEST PUSH1 0x0 PUSH1 0x4 SLOAD PUSH1 0x0 SUB PUSH2 0x56A JUMPI POP PUSH1 0x1 SWAP1 JUMP JUMPDEST PUSH1 0x2 SLOAD PUSH1 0x4 SLOAD PUSH2 0x57A SWAP2 SWAP1 PUSH2 0x785 JUMP JUMPDEST TIMESTAMP LT ISZERO SWAP1 POP SWAP1 JUMP JUMPDEST PUSH1 0x40 MLOAD CALLVALUE DUP2 MSTORE CALLER SWAP1 PUSH32 0x2DA466A7B24304F47E87FA2E1E5A81B9831CE54FEC19055CE277CA2F39BA42C4 SWAP1 PUSH1 0x20 ADD PUSH1 0x40 MLOAD DUP1 SWAP2 SUB SWAP1 LOG2 JUMP JUMPDEST PUSH1 0x0 SLOAD PUSH1 0x1 PUSH1 0x1 PUSH1 0xA0 SHL SUB AND CALLER EQ PUSH2 0x5E4 JUMPI PUSH1 0x40 MLOAD PUSH4 0x30CD7471 PUSH1 0xE0 SHL DUP2 MSTORE PUSH1 0x4 ADD PUSH1 0x40 MLOAD DUP1 SWAP2 SUB SWAP1 REVERT JUMPDEST DUP1 PUSH1 0x0 SUB PUSH2 0x605 JUMPI PUSH1 0x40 MLOAD PUSH4 0x96CB8A7F PUSH1 0xE0 SHL DUP2 MSTORE PUSH1 0x4 ADD PUSH1 0x40 MLOAD DUP1 SWAP2 SUB SWAP1 REVERT JUMPDEST PUSH1 0x1 SLOAD PUSH1 0x40 DUP1 MLOAD SWAP2 DUP3 MSTORE PUSH1 0x20 DUP3 ADD DUP4 SWAP1 MSTORE PUSH32 0x5857C36C84B5A997B303D2520C6D7F84AD6F68EBBAA63B916B470BE6D3721A8B SWAP2 ADD PUSH1 0x40 MLOAD DUP1 SWAP2 SUB SWAP1 LOG1 PUSH1 0x1 SSTORE JUMP JUMPDEST PUSH1 0x3 DUP2 LT PUSH2 0x664 JUMPI PUSH4 0x4E487B71 PUSH1 0xE0 SHL PUSH1 0x0 MSTORE PUSH1 0x21 PUSH1 0x4 MSTORE PUSH1 0x24 PUSH1 0x0 REVERT JUMPDEST SWAP1 MSTORE JUMP JUMPDEST PUSH1 0x20 DUP2 ADD PUSH2 0x676 DUP3 DUP5 PUSH2 0x646 JUMP JUMPDEST SWAP3 SWAP2 POP POP JUMP JUMPDEST DUP6 DUP2 MSTORE PUSH1 0x20 DUP2 ADD DUP6 SWAP1 MSTORE PUSH1 0x40 DUP2 ADD DUP5 SWAP1 MSTORE PUSH1 0xA0 DUP2 ADD PUSH2 0x69E PUSH1 0x60 DUP4 ADD DUP6 PUSH2 0x646 JUMP JUMPDEST DUP3 PUSH1 0x80 DUP4 ADD MSTORE SWAP7 SWAP6 POP POP POP POP POP POP JUMP JUMPDEST PUSH1 0x0 DUP1 PUSH1 0x0 DUP1 PUSH1 0x60 DUP6 DUP8 SUB SLT ISZERO PUSH2 0x6C4 JUMPI PUSH1 0x0 DUP1 REVERT JUMPDEST DUP5 CALLDATALOAD PUSH1 0x1 PUSH1 0x1 PUSH1 0xA0 SHL SUB DUP2 AND DUP2 EQ PUSH2 0x6DB JUMPI PUSH1 0x0 DUP1 REVERT JUMPDEST SWAP4 POP PUSH1 0x20 DUP6 ADD CALLDATALOAD SWAP3 POP PUSH1 0x40 DUP6 ADD CALLDATALOAD PUSH8 0xFFFFFFFFFFFFFFFF DUP1 DUP3 GT ISZERO PUSH2 0x6FF JUMPI PUSH1 0x0 DUP1 REVERT JUMPDEST DUP2 DUP8 ADD SWAP2 POP DUP8 PUSH1 0x1F DUP4 ADD SLT PUSH2 0x713 JUMPI PUSH1 0x0 DUP1 REVERT JUMPDEST DUP2 CALLDATALOAD DUP2 DUP2 GT ISZERO PUSH2 0x722 JUMPI PUSH1 0x0 DUP1 REVERT JUMPDEST DUP9 PUSH1 0x20 DUP3 DUP6 ADD ADD GT ISZERO PUSH2 0x734 JUMPI PUSH1 0x0 DUP1 REVERT JUMPDEST SWAP6 SWAP9 SWAP5 SWAP8 POP POP PUSH1 0x20 ADD SWAP5 POP POP POP JUMP JUMPDEST PUSH1 0x0 PUSH1 0x20 DUP3 DUP5 SUB SLT ISZERO PUSH2 0x755 JUMPI PUSH1 0x0 DUP1 REVERT JUMPDEST POP CALLDATALOAD SWAP2 SWAP1 POP JUMP JUMPDEST PUSH4 0x4E487B71 PUSH1 0xE0 SHL PUSH1 0x0 MSTORE PUSH1 0x11 PUSH1 0x4 MSTORE PUSH1 0x24 PUSH1 0x0 REVERT JUMPDEST DUP2 DUP2 SUB DUP2 DUP2 GT ISZERO PUSH2 0x676 JUMPI PUSH2 0x676 PUSH2 0x75C JUMP JUMPDEST DUP1 DUP3 ADD DUP1 DUP3 GT ISZERO PUSH2 0x676 JUMPI PUSH2 0x676 PUSH2 0x75C JUMP JUMPDEST DUP2 DUP4 MSTORE DUP2 DUP2 PUSH1 0x20 DUP6 ADD CALLDATACOPY POP PUSH1 0x0 DUP3 DUP3 ADD PUSH1 0x20 SWAP1 DUP2 ADD SWAP2 SWAP1 SWAP2 MSTORE PUSH1 0x1F SWAP1 SWAP2 ADD PUSH1 0x1F NOT AND SWAP1 SWAP2 ADD ADD SWAP1 JUMP JUMPDEST DUP4 DUP2 MSTORE PUSH1 0x60 PUSH1 0x20 DUP3 ADD MSTORE PUSH1 0x0 PUSH2 0x7DB PUSH1 0x60 DUP4 ADD DUP5 DUP7 PUSH2 0x798 JUMP JUMPDEST DUP3 DUP2 SUB PUSH1 0x40 SWAP4 DUP5 ADD MSTORE PUSH1 0x14 DUP2 MSTORE PUSH20 0x11185A5B1E481B1A5B5A5D08195E18D959591959 PUSH1 0x62 SHL PUSH1 0x20 DUP3 ADD MSTORE SWAP2 SWAP1 SWAP2 ADD SWAP5 SWAP4 POP POP POP POP JUMP JUMPDEST DUP6 DUP2 MSTORE PUSH1 0x80 PUSH1 0x20 DUP3 ADD MSTORE PUSH1 0x0 PUSH2 0x82B PUSH1 0x80 DUP4 ADD DUP7 DUP9 PUSH2 0x798 JUMP JUMPDEST PUSH1 0x40 DUP4 ADD SWAP5 SWAP1 SWAP5 MSTORE POP PUSH1 0x60 ADD MSTORE SWAP4 SWAP3 POP POP POP JUMP INVALID LOG2 PUSH5 0x6970667358 0x22 SLT KECCAK256 RETURNDATACOPY 0xB6 PUSH11 0x67D85021F20175FFD3A0FE 0xB8 0xB4 0xE8 CREATE DUP12 PUSH7 0xF45CF29AE2D2DF 0x22 DUP10 0x27 0xB6 DUP2 PUSH5 0x736F6C6343 STOP ADDMOD EQ STOP CALLER "},"methodIdentifiers":{"currentState()":"0c3f6acf","dailyLimit()":"67eeba0c","deposit()":"d0e30db0","getWindowInfo()":"3a231a58","isWindowExpired()":"b2f398d1","owner()":"8da5cb5b","spend(address,uint256,string)":"6e3f5764","spentInWindow()":"db1f237f","updateLimit(uint256)":"fae0959a","windowDuration()":"5c11ff7a","windowStart()":"b0c2783a"}}}}}