{"contracts/SpendLimitWallet.sol":{"SpendLimitWallet":{"abi":[{"inputs":[{"internalType":"uint256","name":"_dailyLimit","type":"uint256"},{"internalType":"uint256","name":"_windowDuration","type":"uint256"}],"stateMutability":"nonpayable","type":"constructor"},{"inputs":[{"internalType":"uint256","name":"requested","type":"uint256"},{"internalType":"uint256","name":"available","type":"uint256"}],"name":"InsufficientBalance","type":"error"},{"inputs":[],"name":"InvalidRecipient","type":"error"},{"inputs":[{"internalType":"uint256","name":"requested","type":"uint256"},{"internalType":"uint256","name":"remaining","type":"uint256"}],"name":"LimitExceeded","type":"error"},{"inputs":[],"name":"NotOwner","type":"error"},{"inputs":[],"name":"NotPendingOwner","type":"error"},{"inputs":[],"name":"TransferFailed","type":"error"},{"inputs":[],"name":"WindowTooShort","type":"error"},{"inputs":[],"name":"ZeroAddress","type":"error"},{"inputs":[],"name":"ZeroAmount","type":"error"},{"inputs":[],"name":"ZeroLimit","type":"error"},{"anonymous":false,"inputs":[{"indexed":true,"internalType":"address","name":"from","type":"address"},{"indexed":false,"internalType":"uint256","name":"amount","type":"uint256"}],"name":"Deposited","type":"event"},{"anonymous":false,"inputs":[{"indexed":false,"internalType":"uint256","name":"currentLimit","type":"uint256"},{"indexed":false,"internalType":"uint256","name":"newLimit","type":"uint256"},{"indexed":false,"internalType":"uint256","name":"effectiveAt","type":"uint256"}],"name":"LimitUpdateScheduled","type":"event"},{"anonymous":false,"inputs":[{"indexed":false,"internalType":"uint256","name":"oldLimit","type":"uint256"},{"indexed":false,"internalType":"uint256","name":"newLimit","type":"uint256"}],"name":"LimitUpdated","type":"event"},{"anonymous":false,"inputs":[{"indexed":true,"internalType":"address","name":"currentOwner","type":"address"},{"indexed":true,"internalType":"address","name":"pendingOwner","type":"address"}],"name":"OwnershipTransferInitiated","type":"event"},{"anonymous":false,"inputs":[{"indexed":true,"internalType":"address","name":"previousOwner","type":"address"},{"indexed":true,"internalType":"address","name":"newOwner","type":"address"}],"name":"OwnershipTransferred","type":"event"},{"anonymous":false,"inputs":[{"indexed":true,"internalType":"address","name":"to","type":"address"},{"indexed":false,"internalType":"uint256","name":"amount","type":"uint256"},{"indexed":false,"internalType":"string","name":"description","type":"string"},{"indexed":false,"internalType":"uint256","name":"spentTotal","type":"uint256"},{"indexed":false,"internalType":"uint256","name":"remaining","type":"uint256"}],"name":"SpendApproved","type":"event"},{"anonymous":false,"inputs":[{"indexed":true,"internalType":"address","name":"to","type":"address"},{"indexed":false,"internalType":"uint256","name":"amount","type":"uint256"},{"indexed":false,"internalType":"string","name":"description","type":"string"},{"indexed":false,"internalType":"string","name":"reason","type":"string"}],"name":"SpendRejected","type":"event"},{"anonymous":false,"inputs":[{"indexed":false,"internalType":"uint256","name":"newWindowStart","type":"uint256"},{"indexed":false,"internalType":"uint256","name":"previousSpent","type":"uint256"}],"name":"WindowReset","type":"event"},{"inputs":[],"name":"acceptOwnership","outputs":[],"stateMutability":"nonpayable","type":"function"},{"inputs":[],"name":"currentState","outputs":[{"internalType":"enum SpendLimitWallet.State","name":"","type":"uint8"}],"stateMutability":"view","type":"function"},{"inputs":[],"name":"dailyLimit","outputs":[{"internalType":"uint256","name":"","type":"uint256"}],"stateMutability":"view","type":"function"},{"inputs":[],"name":"deposit","outputs":[],"stateMutability":"payable","type":"function"},{"inputs":[],"name":"getWindowInfo","outputs":[{"internalType":"uint256","name":"spent","type":"uint256"},{"internalType":"uint256","name":"remaining","type":"uint256"},{"internalType":"uint256","name":"windowEndsAt","type":"uint256"},{"internalType":"enum SpendLimitWallet.State","name":"state","type":"uint8"},{"internalType":"uint256","name":"balance","type":"uint256"}],"stateMutability":"view","type":"function"},{"inputs":[],"name":"isWindowExpired","outputs":[{"internalType":"bool","name":"","type":"bool"}],"stateMutability":"view","type":"function"},{"inputs":[],"name":"owner","outputs":[{"internalType":"address","name":"","type":"address"}],"stateMutability":"view","type":"function"},{"inputs":[],"name":"pendingLimit","outputs":[{"internalType":"uint256","name":"","type":"uint256"}],"stateMutability":"view","type":"function"},{"inputs":[],"name":"pendingOwner","outputs":[{"internalType":"address","name":"","type":"address"}],"stateMutability":"view","type":"function"},{"inputs":[{"internalType":"address payable","name":"to","type":"address"},{"internalType":"uint256","name":"amount","type":"uint256"},{"internalType":"string","name":"description","type":"string"}],"name":"spend","outputs":[{"internalType":"bool","name":"","type":"bool"}],"stateMutability":"nonpayable","type":"function"},{"inputs":[],"name":"spentInWindow","outputs":[{"internalType":"uint256","name":"","type":"uint256"}],"stateMutability":"view","type":"function"},{"inputs":[{"internalType":"address","name":"newOwner","type":"address"}],"name":"transferOwnership","outputs":[],"stateMutability":"nonpayable","type":"function"},{"inputs":[{"internalType":"uint256","name":"newLimit","type":"uint256"}],"name":"updateLimit","outputs":[],"stateMutability":"nonpayable","type":"function"},{"inputs":[],"name":"windowDuration","outputs":[{"internalType":"uint256","name":"","type":"uint256"}],"stateMutability":"view","type":"function"},{"inputs":[],"name":"windowStart","outputs":[{"internalType":"uint256","name":"","type":"uint256"}],"stateMutability":"view","type":"function"},{"stateMutability":"payable","type":"receive"}],"evm":{"bytecode":{"linkReferences":{},"object":"608060405234801561001057600080fd5b50604051610c87380380610c8783398101604081905261002f916100a9565b81600003610050576040516396cb8a7f60e01b815260040160405180910390fd5b6000811561005e5781610063565b620151805b9050610e1081101561008857604051639568563d60e01b815260040160405180910390fd5b600080546001600160a01b03191633179055600292909255506004556100cd565b600080604083850312156100bc57600080fd5b505080516020909101519092909150565b610bab806100dc6000396000f3fe6080604052600436106100ec5760003560e01c8063912856831161008a578063db1f237f11610059578063db1f237f14610285578063e30c39781461029b578063f2fde38b146102bb578063fae0959a146102db57600080fd5b8063912856831461023c578063b0c2783a14610252578063b2f398d114610268578063d0e30db01461027d57600080fd5b806367eeba0c116100c657806367eeba0c146101a95780636e3f5764146101bf57806379ba5097146101ef5780638da5cb5b1461020457600080fd5b80630c3f6acf146101345780633a231a581461015f5780635c11ff7a1461018557600080fd5b3661012f57341561012d5760405134815233907f2da466a7b24304f47e87fa2e1e5a81b9831ce54fec19055ce277ca2f39ba42c49060200160405180910390a25b005b600080fd5b34801561014057600080fd5b506101496102fb565b6040516101569190610971565b60405180910390f35b34801561016b57600080fd5b50610174610333565b604051610156959493929190610985565b34801561019157600080fd5b5061019b60045481565b604051908152602001610156565b3480156101b557600080fd5b5061019b60025481565b3480156101cb57600080fd5b506101df6101da3660046109cc565b6103c5565b6040519015158152602001610156565b3480156101fb57600080fd5b5061012d6105d0565b34801561021057600080fd5b50600054610224906001600160a01b031681565b6040516001600160a01b039091168152602001610156565b34801561024857600080fd5b5061019b60035481565b34801561025e57600080fd5b5061019b60065481565b34801561027457600080fd5b506101df61065f565b61012d610689565b34801561029157600080fd5b5061019b60055481565b3480156102a757600080fd5b50600154610224906001600160a01b031681565b3480156102c757600080fd5b5061012d6102d6366004610a55565b6106e1565b3480156102e757600080fd5b5061012d6102f6366004610a79565b610784565b600060055460001480610311575061031161065f565b1561031c5750600090565b6002546005541061032d5750600290565b50600190565b60008060008060008061034461065f565b905080806103525750600554155b61035e57600554610361565b60005b95508560025411610373576000610381565b856002546103819190610aa8565b94506000600654118015610393575080155b61039e5760006103ae565b6004546006546103ae9190610abb565b93506103b86102fb565b9250479150509091929394565b600080546001600160a01b031633146103f1576040516330cd747160e01b815260040160405180910390fd5b6001600160a01b03851661041857604051634e46966960e11b815260040160405180910390fd5b8360000361043957604051631f2a200560e01b815260040160405180910390fd5b478411156104675760405163cf47918160e01b81526004810185905247602482015260440160405180910390fd5b61046f610894565b60008460055461047f9190610abb565b90506002548111156104da57856001600160a01b03167f3e53416dc73490ccd0b17d9b7d230b4dbb731911f89d5306d5356df5a6322c5e8686866040516104c893929190610af7565b60405180910390a260009150506105c8565b6006546000036104e957426006555b60058190556002546000906104ff908390610aa8565b90506000876001600160a01b03168760405160006040518083038185875af1925050503d806000811461054e576040519150601f19603f3d011682016040523d82523d6000602084013e610553565b606091505b5050905080610575576040516312171d8360e31b815260040160405180910390fd5b876001600160a01b03167fa8abdfca1a6436f807a651fcb470bbe959a893c36ed764ba2168b0b04bc3b5c7888888600554876040516105b8959493929190610b47565b60405180910390a2600193505050505b949350505050565b6001546001600160a01b031633146105fb57604051630614e5c760e21b815260040160405180910390fd5b600154600080546040516001600160a01b0393841693909116917f8be0079c531659141344cd1fd0a4f28419497f9722a3daafe3b4186f6b6457e091a360018054600080546001600160a01b03199081166001600160a01b03841617909155169055565b60006006546000036106715750600190565b6004546006546106819190610abb565b421015905090565b346000036106aa57604051631f2a200560e01b815260040160405180910390fd5b60405134815233907f2da466a7b24304f47e87fa2e1e5a81b9831ce54fec19055ce277ca2f39ba42c49060200160405180910390a2565b6000546001600160a01b0316331461070c576040516330cd747160e01b815260040160405180910390fd5b6001600160a01b0381166107335760405163d92e233d60e01b815260040160405180910390fd5b600180546001600160a01b0319166001600160a01b0383811691821790925560008054604051929316917fb150023a879fd806e3599b6ca8ee3b60f0e360ab3846d128d67ebce1a391639a9190a350565b6000546001600160a01b031633146107af576040516330cd747160e01b815260040160405180910390fd5b806000036107d0576040516396cb8a7f60e01b815260040160405180910390fd5b60006006541180156107e757506107e561065f565b155b1561084a57806003819055507fe3f40c35b0fb366c281308ca874af8e1345ee3575d5b62157a8d476d8f2639c3600254826004546006546108289190610abb565b604080519384526020840192909252908201526060015b60405180910390a150565b60025460408051918252602082018390527f5857c36c84b5a997b303d2520c6d7f84ad6f68ebbaa63b916b470be6d3721a8b910160405180910390a1600281905560006003555b50565b61089c61065f565b15806108a85750600554155b156108af57565b6005805460009182905560069190915560035415610919577f5857c36c84b5a997b303d2520c6d7f84ad6f68ebbaa63b916b470be6d3721a8b600254600354604051610905929190918252602082015260400190565b60405180910390a160038054600255600090555b60408051428152602081018390527f50d926d13f7e01d114aa79ad3d8eb3dc4e0d60d51713f8634e9a4a088e0a45b5910161083f565b6003811061096d57634e487b7160e01b600052602160045260246000fd5b9052565b6020810161097f828461094f565b92915050565b858152602081018590526040810184905260a081016109a7606083018561094f565b8260808301529695505050505050565b6001600160a01b038116811461089157600080fd5b600080600080606085870312156109e257600080fd5b84356109ed816109b7565b935060208501359250604085013567ffffffffffffffff80821115610a1157600080fd5b818701915087601f830112610a2557600080fd5b813581811115610a3457600080fd5b886020828501011115610a4657600080fd5b95989497505060200194505050565b600060208284031215610a6757600080fd5b8135610a72816109b7565b9392505050565b600060208284031215610a8b57600080fd5b5035919050565b634e487b7160e01b600052601160045260246000fd5b8181038181111561097f5761097f610a92565b8082018082111561097f5761097f610a92565b81835281816020850137506000828201602090810191909152601f909101601f19169091010190565b838152606060208201526000610b11606083018486610ace565b828103604093840152601481527311185a5b1e481b1a5b5a5d08195e18d95959195960621b602082015291909101949350505050565b858152608060208201526000610b61608083018688610ace565b60408301949094525060600152939250505056fea264697066735822122052a841c16885fbae1f660650eb6b23196997e4e1831d93a98f44c764914f4e7364736f6c63430008140033","opcodes":"PUSH1 0x80 PUSH1 0x40 MSTORE CALLVALUE DUP1 ISZERO PUSH2 0x10 JUMPI PUSH1 0x0 DUP1 REVERT JUMPDEST POP PUSH1 0x40 MLOAD PUSH2 0xC87 CODESIZE SUB DUP1 PUSH2 0xC87 DUP4 CODECOPY DUP2 ADD PUSH1 0x40 DUP2 SWAP1 MSTORE PUSH2 0x2F SWAP2 PUSH2 0xA9 JUMP JUMPDEST DUP2 PUSH1 0x0 SUB PUSH2 0x50 JUMPI PUSH1 0x40 MLOAD PUSH4 0x96CB8A7F PUSH1 0xE0 SHL DUP2 MSTORE PUSH1 0x4 ADD PUSH1 0x40 MLOAD DUP1 SWAP2 SUB SWAP1 REVERT JUMPDEST PUSH1 0x0 DUP2 ISZERO PUSH2 0x5E JUMPI DUP2 PUSH2 0x63 JUMP JUMPDEST PUSH3 0x15180 JUMPDEST SWAP1 POP PUSH2 0xE10 DUP2 LT ISZERO PUSH2 0x88 JUMPI PUSH1 0x40 MLOAD PUSH4 0x9568563D PUSH1 0xE0 SHL DUP2 MSTORE PUSH1 0x4 ADD PUSH1 0x40 MLOAD DUP1 SWAP2 SUB SWAP1 REVERT JUMPDEST PUSH1 0x0 DUP1 SLOAD PUSH1 0x1 PUSH1 0x1 PUSH1 0xA0 SHL SUB NOT AND CALLER OR SWAP1 SSTORE PUSH1 0x2 SWAP3 SWAP1 SWAP3 SSTORE POP PUSH1 0x4 SSTORE PUSH2 0xCD JUMP JUMPDEST PUSH1 0x0 DUP1 PUSH1 0x40 DUP4 DUP6 SUB SLT ISZERO PUSH2 0xBC JUMPI PUSH1 0x0 DUP1 REVERT JUMPDEST POP POP DUP1 MLOAD PUSH1 0x20 SWAP1 SWAP2 ADD MLOAD SWAP1 SWAP3 SWAP1 SWAP2 POP JUMP JUMPDEST PUSH2 0xBAB DUP1 PUSH2 0xDC PUSH1 0x0 CODECOPY PUSH1 0x0 RETURN INVALID PUSH1 0x80 PUSH1 0x40 MSTORE PUSH1 0x4 CALLDATASIZE LT PUSH2 0xEC JUMPI PUSH1 0x0 CALLDATALOAD PUSH1 0xE0 SHR DUP1 PUSH4 0x91285683 GT PUSH2 0x8A JUMPI DUP1 PUSH4 0xDB1F237F GT PUSH2 0x59 JUMPI DUP1 PUSH4 0xDB1F237F EQ PUSH2 0x285 JUMPI DUP1 PUSH4 0xE30C3978 EQ PUSH2 0x29B JUMPI DUP1 PUSH4 0xF2FDE38B EQ PUSH2 0x2BB JUMPI DUP1 PUSH4 0xFAE0959A EQ PUSH2 0x2DB JUMPI PUSH1 0x0 DUP1 REVERT JUMPDEST DUP1 PUSH4 0x91285683 EQ PUSH2 0x23C JUMPI DUP1 PUSH4 0xB0C2783A EQ PUSH2 0x252 JUMPI DUP1 PUSH4 0xB2F398D1 EQ PUSH2 0x268 JUMPI DUP1 PUSH4 0xD0E30DB0 EQ PUSH2 0x27D JUMPI PUSH1 0x0 DUP1 REVERT JUMPDEST DUP1 PUSH4 0x67EEBA0C GT PUSH2 0xC6 JUMPI DUP1 PUSH4 0x67EEBA0C EQ PUSH2 0x1A9 JUMPI DUP1 PUSH4 0x6E3F5764 EQ PUSH2 0x1BF JUMPI DUP1 PUSH4 0x79BA5097 EQ PUSH2 0x1EF JUMPI DUP1 PUSH4 0x8DA5CB5B EQ PUSH2 0x204 JUMPI PUSH1 0x0 DUP1 REVERT JUMPDEST DUP1 PUSH4 0xC3F6ACF EQ PUSH2 0x134 JUMPI DUP1 PUSH4 0x3A231A58 EQ PUSH2 0x15F JUMPI DUP1 PUSH4 0x5C11FF7A EQ PUSH2 0x185 JUMPI PUSH1 0x0 DUP1 REVERT JUMPDEST CALLDATASIZE PUSH2 0x12F JUMPI CALLVALUE ISZERO PUSH2 0x12D JUMPI PUSH1 0x40 MLOAD CALLVALUE DUP2 MSTORE CALLER SWAP1 PUSH32 0x2DA466A7B24304F47E87FA2E1E5A81B9831CE54FEC19055CE277CA2F39BA42C4 SWAP1 PUSH1 0x20 ADD PUSH1 0x40 MLOAD DUP1 SWAP2 SUB SWAP1 LOG2 JUMPDEST STOP JUMPDEST PUSH1 0x0 DUP1 REVERT JUMPDEST CALLVALUE DUP1 ISZERO PUSH2 0x140 JUMPI PUSH1 0x0 DUP1 REVERT JUMPDEST POP PUSH2 0x149 PUSH2 0x2FB JUMP JUMPDEST PUSH1 0x40 MLOAD PUSH2 0x156 SWAP2 SWAP1 PUSH2 0x971 JUMP JUMPDEST PUSH1 0x40 MLOAD DUP1 SWAP2 SUB SWAP1 RETURN JUMPDEST CALLVALUE DUP1 ISZERO PUSH2 0x16B JUMPI PUSH1 0x0 DUP1 REVERT JUMPDEST POP PUSH2 0x174 PUSH2 0x333 JUMP JUMPDEST PUSH1 0x40 MLOAD PUSH2 0x156 SWAP6 SWAP5 SWAP4 SWAP3 SWAP2 SWAP1 PUSH2 0x985 JUMP JUMPDEST CALLVALUE DUP1 ISZERO PUSH2 0x191 JUMPI PUSH1 0x0 DUP1 REVERT JUMPDEST POP PUSH2 0x19B PUSH1 0x4 SLOAD DUP2 JUMP JUMPDEST PUSH1 0x40 MLOAD SWAP1 DUP2 MSTORE PUSH1 0x20 ADD PUSH2 0x156 JUMP JUMPDEST CALLVALUE DUP1 ISZERO PUSH2 0x1B5 JUMPI PUSH1 0x0 DUP1 REVERT JUMPDEST POP PUSH2 0x19B PUSH1 0x2 SLOAD DUP2 JUMP JUMPDEST CALLVALUE DUP1 ISZERO PUSH2 0x1CB JUMPI PUSH1 0x0 DUP1 REVERT JUMPDEST POP PUSH2 0x1DF PUSH2 0x1DA CALLDATASIZE PUSH1 0x4 PUSH2 0x9CC JUMP JUMPDEST PUSH2 0x3C5 JUMP JUMPDEST PUSH1 0x40 MLOAD SWAP1 ISZERO ISZERO DUP2 MSTORE PUSH1 0x20 ADD PUSH2 0x156 JUMP JUMPDEST CALLVALUE DUP1 ISZERO PUSH2 0x1FB JUMPI PUSH1 0x0 DUP1 REVERT JUMPDEST POP PUSH2 0x12D PUSH2 0x5D0 JUMP JUMPDEST CALLVALUE DUP1 ISZERO PUSH2 0x210 JUMPI PUSH1 0x0 DUP1 REVERT JUMPDEST POP PUSH1 0x0 SLOAD PUSH2 0x224 SWAP1 PUSH1 0x1 PUSH1 0x1 PUSH1 0xA0 SHL SUB AND DUP2 JUMP JUMPDEST PUSH1 0x40 MLOAD PUSH1 0x1 PUSH1 0x1 PUSH1 0xA0 SHL SUB SWAP1 SWAP2 AND DUP2 MSTORE PUSH1 0x20 ADD PUSH2 0x156 JUMP JUMPDEST CALLVALUE DUP1 ISZERO PUSH2 0x248 JUMPI PUSH1 0x0 DUP1 REVERT JUMPDEST POP PUSH2 0x19B PUSH1 0x3 SLOAD DUP2 JUMP JUMPDEST CALLVALUE DUP1 ISZERO PUSH2 0x25E JUMPI PUSH1 0x0 DUP1 REVERT JUMPDEST POP PUSH2 0x19B PUSH1 0x6 SLOAD DUP2 JUMP JUMPDEST CALLVALUE DUP1 ISZERO PUSH2 0x274 JUMPI PUSH1 0x0 DUP1 REVERT JUMPDEST POP PUSH2 0x1DF PUSH2 0x65F JUMP JUMPDEST PUSH2 0x12D PUSH2 0x689 JUMP JUMPDEST CALLVALUE DUP1 ISZERO PUSH2 0x291 JUMPI PUSH1 0x0 DUP1 REVERT JUMPDEST POP PUSH2 0x19B PUSH1 0x5 SLOAD DUP2 JUMP JUMPDEST CALLVALUE DUP1 ISZERO PUSH2 0x2A7 JUMPI PUSH1 0x0 DUP1 REVERT JUMPDEST POP PUSH1 0x1 SLOAD PUSH2 0x224 SWAP1 PUSH1 0x1 PUSH1 0x1 PUSH1 0xA0 SHL SUB AND DUP2 JUMP JUMPDEST CALLVALUE DUP1 ISZERO PUSH2 0x2C7 JUMPI PUSH1 0x0 DUP1 REVERT JUMPDEST POP PUSH2 0x12D PUSH2 0x2D6 CALLDATASIZE PUSH1 0x4 PUSH2 0xA55 JUMP JUMPDEST PUSH2 0x6E1 JUMP JUMPDEST CALLVALUE DUP1 ISZERO PUSH2 0x2E7 JUMPI PUSH1 0x0 DUP1 REVERT JUMPDEST POP PUSH2 0x12D PUSH2 0x2F6 CALLDATASIZE PUSH1 0x4 PUSH2 0xA79 JUMP JUMPDEST PUSH2 0x784 JUMP JUMPDEST PUSH1 0x0 PUSH1 0x5 SLOAD PUSH1 0x0 EQ DUP1 PUSH2 0x311 JUMPI POP PUSH2 0x311 PUSH2 0x65F JUMP JUMPDEST ISZERO PUSH2 0x31C JUMPI POP PUSH1 0x0 SWAP1 JUMP JUMPDEST PUSH1 0x2 SLOAD PUSH1 0x5 SLOAD LT PUSH2 0x32D JUMPI POP PUSH1 0x2 SWAP1 JUMP JUMPDEST POP PUSH1 0x1 SWAP1 JUMP JUMPDEST PUSH1 0x0 DUP1 PUSH1 0x0 DUP1 PUSH1 0x0 DUP1 PUSH2 0x344 PUSH2 0x65F JUMP JUMPDEST SWAP1 POP DUP1 DUP1 PUSH2 0x352 JUMPI POP PUSH1 0x5 SLOAD ISZERO JUMPDEST PUSH2 0x35E JUMPI PUSH1 0x5 SLOAD PUSH2 0x361 JUMP JUMPDEST PUSH1 0x0 JUMPDEST SWAP6 POP DUP6 PUSH1 0x2 SLOAD GT PUSH2 0x373 JUMPI PUSH1 0x0 PUSH2 0x381 JUMP JUMPDEST DUP6 PUSH1 0x2 SLOAD PUSH2 0x381 SWAP2 SWAP1 PUSH2 0xAA8 JUMP JUMPDEST SWAP5 POP PUSH1 0x0 PUSH1 0x6 SLOAD GT DUP1 ISZERO PUSH2 0x393 JUMPI POP DUP1 ISZERO JUMPDEST PUSH2 0x39E JUMPI PUSH1 0x0 PUSH2 0x3AE JUMP JUMPDEST PUSH1 0x4 SLOAD PUSH1 0x6 SLOAD PUSH2 0x3AE SWAP2 SWAP1 PUSH2 0xABB JUMP JUMPDEST SWAP4 POP PUSH2 0x3B8 PUSH2 0x2FB JUMP JUMPDEST SWAP3 POP SELFBALANCE SWAP2 POP POP SWAP1 SWAP2 SWAP3 SWAP4 SWAP5 JUMP JUMPDEST PUSH1 0x0 DUP1 SLOAD PUSH1 0x1 PUSH1 0x1 PUSH1 0xA0 SHL SUB AND CALLER EQ PUSH2 0x3F1 JUMPI PUSH1 0x40 MLOAD PUSH4 0x30CD7471 PUSH1 0xE0 SHL DUP2 MSTORE PUSH1 0x4 ADD PUSH1 0x40 MLOAD DUP1 SWAP2 SUB SWAP1 REVERT JUMPDEST PUSH1 0x1 PUSH1 0x1 PUSH1 0xA0 SHL SUB DUP6 AND PUSH2 0x418 JUMPI PUSH1 0x40 MLOAD PUSH4 0x4E469669 PUSH1 0xE1 SHL DUP2 MSTORE PUSH1 0x4 ADD PUSH1 0x40 MLOAD DUP1 SWAP2 SUB SWAP1 REVERT JUMPDEST DUP4 PUSH1 0x0 SUB PUSH2 0x439 JUMPI PUSH1 0x40 MLOAD PUSH4 0x1F2A2005 PUSH1 0xE0 SHL DUP2 MSTORE PUSH1 0x4 ADD PUSH1 0x40 MLOAD DUP1 SWAP2 SUB SWAP1 REVERT JUMPDEST SELFBALANCE DUP5 GT ISZERO PUSH2 0x467 JUMPI PUSH1 0x40 MLOAD PUSH4 0xCF479181 PUSH1 0xE0 SHL DUP2 MSTORE PUSH1 0x4 DUP2 ADD DUP6 SWAP1 MSTORE SELFBALANCE PUSH1 0x24 DUP3 ADD MSTORE PUSH1 0x44 ADD PUSH1 0x40 MLOAD DUP1 SWAP2 SUB SWAP1 REVERT JUMPDEST PUSH2 0x46F PUSH2 0x894 JUMP JUMPDEST PUSH1 0x0 DUP5 PUSH1 0x5 SLOAD PUSH2 0x47F SWAP2 SWAP1 PUSH2 0xABB JUMP JUMPDEST SWAP1 POP PUSH1 0x2 SLOAD DUP2 GT ISZERO PUSH2 0x4DA JUMPI DUP6 PUSH1 0x1 PUSH1 0x1 PUSH1 0xA0 SHL SUB AND PUSH32 0x3E53416DC73490CCD0B17D9B7D230B4DBB731911F89D5306D5356DF5A6322C5E DUP7 DUP7 DUP7 PUSH1 0x40 MLOAD PUSH2 0x4C8 SWAP4 SWAP3 SWAP2 SWAP1 PUSH2 0xAF7 JUMP JUMPDEST PUSH1 0x40 MLOAD DUP1 SWAP2 SUB SWAP1 LOG2 PUSH1 0x0 SWAP2 POP POP PUSH2 0x5C8 JUMP JUMPDEST PUSH1 0x6 SLOAD PUSH1 0x0 SUB PUSH2 0x4E9 JUMPI TIMESTAMP PUSH1 0x6 SSTORE JUMPDEST PUSH1 0x5 DUP2 SWAP1 SSTORE PUSH1 0x2 SLOAD PUSH1 0x0 SWAP1 PUSH2 0x4FF SWAP1 DUP4 SWAP1 PUSH2 0xAA8 JUMP JUMPDEST SWAP1 POP PUSH1 0x0 DUP8 PUSH1 0x1 PUSH1 0x1 PUSH1 0xA0 SHL SUB AND DUP8 PUSH1 0x40 MLOAD PUSH1 0x0 PUSH1 0x40 MLOAD DUP1 DUP4 SUB DUP2 DUP6 DUP8 GAS CALL SWAP3 POP POP POP RETURNDATASIZE DUP1 PUSH1 0x0 DUP2 EQ PUSH2 0x54E JUMPI PUSH1 0x40 MLOAD SWAP2 POP PUSH1 0x1F NOT PUSH1 0x3F RETURNDATASIZE ADD AND DUP3 ADD PUSH1 0x40 MSTORE RETURNDATASIZE DUP3 MSTORE RETURNDATASIZE PUSH1 0x0 PUSH1 0x20 DUP5 ADD RETURNDATACOPY PUSH2 0x553 JUMP JUMPDEST PUSH1 0x60 SWAP2 POP JUMPDEST POP POP SWAP1 POP DUP1 PUSH2 0x575 JUMPI PUSH1 0x40 MLOAD PUSH4 0x12171D83 PUSH1 0xE3 SHL DUP2 MSTORE PUSH1 0x4 ADD PUSH1 0x40 MLOAD DUP1 SWAP2 SUB SWAP1 REVERT JUMPDEST DUP8 PUSH1 0x1 PUSH1 0x1 PUSH1 0xA0 SHL SUB AND PUSH32 0xA8ABDFCA1A6436F807A651FCB470BBE959A893C36ED764BA2168B0B04BC3B5C7 DUP9 DUP9 DUP9 PUSH1 0x5 SLOAD DUP8 PUSH1 0x40 MLOAD PUSH2 0x5B8 SWAP6 SWAP5 SWAP4 SWAP3 SWAP2 SWAP1 PUSH2 0xB47 JUMP JUMPDEST PUSH1 0x40 MLOAD DUP1 SWAP2 SUB SWAP1 LOG2 PUSH1 0x1 SWAP4 POP POP POP POP JUMPDEST SWAP5 SWAP4 POP POP POP POP JUMP JUMPDEST PUSH1 0x1 SLOAD PUSH1 0x1 PUSH1 0x1 PUSH1 0xA0 SHL SUB AND CALLER EQ PUSH2 0x5FB JUMPI PUSH1 0x40 MLOAD PUSH4 0x614E5C7 PUSH1 0xE2 SHL DUP2 MSTORE PUSH1 0x4 ADD PUSH1 0x40 MLOAD DUP1 SWAP2 SUB SWAP1 REVERT JUMPDEST PUSH1 0x1 SLOAD PUSH1 0x0 DUP1 SLOAD PUSH1 0x40 MLOAD PUSH1 0x1 PUSH1 0x1 PUSH1 0xA0 SHL SUB SWAP4 DUP5 AND SWAP4 SWAP1 SWAP2 AND SWAP2 PUSH32 0x8BE0079C531659141344CD1FD0A4F28419497F9722A3DAAFE3B4186F6B6457E0 SWAP2 LOG3 PUSH1 0x1 DUP1 SLOAD PUSH1 0x0 DUP1 SLOAD PUSH1 0x1 PUSH1 0x1 PUSH1 0xA0 SHL SUB NOT SWAP1 DUP2 AND PUSH1 0x1 PUSH1 0x1 PUSH1 0xA0 SHL SUB DUP5 AND OR SWAP1 SWAP2 SSTORE AND SWAP1 SSTORE JUMP JUMPDEST PUSH1 0x0 PUSH1 0x6 SLOAD PUSH1 0x0 SUB PUSH2 0x671 JUMPI POP PUSH1 0x1 SWAP1 JUMP JUMPDEST PUSH1 0x4 SLOAD PUSH1 0x6 SLOAD PUSH2 0x681 SWAP2 SWAP1 PUSH2 0xABB JUMP JUMPDEST TIMESTAMP LT ISZERO SWAP1 POP SWAP1 JUMP JUMPDEST CALLVALUE PUSH1 0x0 SUB PUSH2 0x6AA JUMPI PUSH1 0x40 MLOAD PUSH4 0x1F2A2005 PUSH1 0xE0 SHL DUP2 MSTORE PUSH1 0x4 ADD PUSH1 0x40 MLOAD DUP1 SWAP2 SUB SWAP1 REVERT JUMPDEST PUSH1 0x40 MLOAD CALLVALUE DUP2 MSTORE CALLER SWAP1 PUSH32 0x2DA466A7B24304F47E87FA2E1E5A81B9831CE54FEC19055CE277CA2F39BA42C4 SWAP1 PUSH1 0x20 ADD PUSH1 0x40 MLOAD DUP1 SWAP2 SUB SWAP1 LOG2 JUMP JUMPDEST PUSH1 0x0 SLOAD PUSH1 0x1 PUSH1 0x1 PUSH1 0xA0 SHL SUB AND CALLER EQ PUSH2 0x70C JUMPI PUSH1 0x40 MLOAD PUSH4 0x30CD7471 PUSH1 0xE0 SHL DUP2 MSTORE PUSH1 0x4 ADD PUSH1 0x40 MLOAD DUP1 SWAP2 SUB SWAP1 REVERT JUMPDEST PUSH1 0x1 PUSH1 0x1 PUSH1 0xA0 SHL SUB DUP2 AND PUSH2 0x733 JUMPI PUSH1 0x40 MLOAD PUSH4 0xD92E233D PUSH1 0xE0 SHL DUP2 MSTORE PUSH1 0x4 ADD PUSH1 0x40 MLOAD DUP1 SWAP2 SUB SWAP1 REVERT JUMPDEST PUSH1 0x1 DUP1 SLOAD PUSH1 0x1 PUSH1 0x1 PUSH1 0xA0 SHL SUB NOT AND PUSH1 0x1 PUSH1 0x1 PUSH1 0xA0 SHL SUB DUP4 DUP2 AND SWAP2 DUP3 OR SWAP1 SWAP3 SSTORE PUSH1 0x0 DUP1 SLOAD PUSH1 0x40 MLOAD SWAP3 SWAP4 AND SWAP2 PUSH32 0xB150023A879FD806E3599B6CA8EE3B60F0E360AB3846D128D67EBCE1A391639A SWAP2 SWAP1 LOG3 POP JUMP JUMPDEST PUSH1 0x0 SLOAD PUSH1 0x1 PUSH1 0x1 PUSH1 0xA0 SHL SUB AND CALLER EQ PUSH2 0x7AF JUMPI PUSH1 0x40 MLOAD PUSH4 0x30CD7471 PUSH1 0xE0 SHL DUP2 MSTORE PUSH1 0x4 ADD PUSH1 0x40 MLOAD DUP1 SWAP2 SUB SWAP1 REVERT JUMPDEST DUP1 PUSH1 0x0 SUB PUSH2 0x7D0 JUMPI PUSH1 0x40 MLOAD PUSH4 0x96CB8A7F PUSH1 0xE0 SHL DUP2 MSTORE PUSH1 0x4 ADD PUSH1 0x40 MLOAD DUP1 SWAP2 SUB SWAP1 REVERT JUMPDEST PUSH1 0x0 PUSH1 0x6 SLOAD GT DUP1 ISZERO PUSH2 0x7E7 JUMPI POP PUSH2 0x7E5 PUSH2 0x65F JUMP JUMPDEST ISZERO JUMPDEST ISZERO PUSH2 0x84A JUMPI DUP1 PUSH1 0x3 DUP2 SWAP1 SSTORE POP PUSH32 0xE3F40C35B0FB366C281308CA874AF8E1345EE3575D5B62157A8D476D8F2639C3 PUSH1 0x2 SLOAD DUP3 PUSH1 0x4 SLOAD PUSH1 0x6 SLOAD PUSH2 0x828 SWAP2 SWAP1 PUSH2 0xABB JUMP JUMPDEST PUSH1 0x40 DUP1 MLOAD SWAP4 DUP5 MSTORE PUSH1 0x20 DUP5 ADD SWAP3 SWAP1 SWAP3 MSTORE SWAP1 DUP3 ADD MSTORE PUSH1 0x60 ADD JUMPDEST PUSH1 0x40 MLOAD DUP1 SWAP2 SUB SWAP1 LOG1 POP JUMP JUMPDEST PUSH1 0x2 SLOAD PUSH1 0x40 DUP1 MLOAD SWAP2 DUP3 MSTORE PUSH1 0x20 DUP3 ADD DUP4 SWAP1 MSTORE PUSH32 0x5857C36C84B5A997B303D2520C6D7F84AD6F68EBBAA63B916B470BE6D3721A8B SWAP2 ADD PUSH1 0x40 MLOAD DUP1 SWAP2 SUB SWAP1 LOG1 PUSH1 0x2 DUP2 SWAP1 SSTORE PUSH1 0x0 PUSH1 0x3 SSTORE JUMPDEST POP JUMP JUMPDEST PUSH2 0x89C PUSH2 0x65F JUMP JUMPDEST ISZERO DUP1 PUSH2 0x8A8 JUMPI POP PUSH1 0x5 SLOAD ISZERO JUMPDEST ISZERO PUSH2 0x8AF JUMPI JUMP JUMPDEST PUSH1 0x5 DUP1 SLOAD PUSH1 0x0 SWAP2 DUP3 SWAP1 SSTORE PUSH1 0x6 SWAP2 SWAP1 SWAP2 SSTORE PUSH1 0x3 SLOAD ISZERO PUSH2 0x919 JUMPI PUSH32 0x5857C36C84B5A997B303D2520C6D7F84AD6F68EBBAA63B916B470BE6D3721A8B PUSH1 0x2 SLOAD PUSH1 0x3 SLOAD PUSH1 0x40 MLOAD PUSH2 0x905 SWAP3 SWAP2 SWAP1 SWAP2 DUP3 MSTORE PUSH1 0x20 DUP3 ADD MSTORE PUSH1 0x40 ADD SWAP1 JUMP JUMPDEST PUSH1 0x40 MLOAD DUP1 SWAP2 SUB SWAP1 LOG1 PUSH1 0x3 DUP1 SLOAD PUSH1 0x2 SSTORE PUSH1 0x0 SWAP1 SSTORE JUMPDEST PUSH1 0x40 DUP1 MLOAD TIMESTAMP DUP2 MSTORE PUSH1 0x20 DUP2 ADD DUP4 SWAP1 MSTORE PUSH32 0x50D926D13F7E01D114AA79AD3D8EB3DC4E0D60D51713F8634E9A4A088E0A45B5 SWAP2 ADD PUSH2 0x83F JUMP JUMPDEST PUSH1 0x3 DUP2 LT PUSH2 0x96D JUMPI PUSH4 0x4E487B71 PUSH1 0xE0 SHL PUSH1 0x0 MSTORE PUSH1 0x21 PUSH1 0x4 MSTORE PUSH1 0x24 PUSH1 0x0 REVERT JUMPDEST SWAP1 MSTORE JUMP JUMPDEST PUSH1 0x20 DUP2 ADD PUSH2 0x97F DUP3 DUP5 PUSH2 0x94F JUMP JUMPDEST SWAP3 SWAP2 POP POP JUMP JUMPDEST DUP6 DUP2 MSTORE PUSH1 0x20 DUP2 ADD DUP6 SWAP1 MSTORE PUSH1 0x40 DUP2 ADD DUP5 SWAP1 MSTORE PUSH1 0xA0 DUP2 ADD PUSH2 0x9A7 PUSH1 0x60 DUP4 ADD DUP6 PUSH2 0x94F JUMP JUMPDEST DUP3 PUSH1 0x80 DUP4 ADD MSTORE SWAP7 SWAP6 POP POP POP POP POP POP JUMP JUMPDEST PUSH1 0x1 PUSH1 0x1 PUSH1 0xA0 SHL SUB DUP2 AND DUP2 EQ PUSH2 0x891 JUMPI PUSH1 0x0 DUP1 REVERT JUMPDEST PUSH1 0x0 DUP1 PUSH1 0x0 DUP1 PUSH1 0x60 DUP6 DUP8 SUB SLT ISZERO PUSH2 0x9E2 JUMPI PUSH1 0x0 DUP1 REVERT JUMPDEST DUP5 CALLDATALOAD PUSH2 0x9ED DUP2 PUSH2 0x9B7 JUMP JUMPDEST SWAP4 POP PUSH1 0x20 DUP6 ADD CALLDATALOAD SWAP3 POP PUSH1 0x40 DUP6 ADD CALLDATALOAD PUSH8 0xFFFFFFFFFFFFFFFF DUP1 DUP3 GT ISZERO PUSH2 0xA11 JUMPI PUSH1 0x0 DUP1 REVERT JUMPDEST DUP2 DUP8 ADD SWAP2 POP DUP8 PUSH1 0x1F DUP4 ADD SLT PUSH2 0xA25 JUMPI PUSH1 0x0 DUP1 REVERT JUMPDEST DUP2 CALLDATALOAD DUP2 DUP2 GT ISZERO PUSH2 0xA34 JUMPI PUSH1 0x0 DUP1 REVERT JUMPDEST DUP9 PUSH1 0x20 DUP3 DUP6 ADD ADD GT ISZERO PUSH2 0xA46 JUMPI PUSH1 0x0 DUP1 REVERT JUMPDEST SWAP6 SWAP9 SWAP5 SWAP8 POP POP PUSH1 0x20 ADD SWAP5 POP POP POP JUMP JUMPDEST PUSH1 0x0 PUSH1 0x20 DUP3 DUP5 SUB SLT ISZERO PUSH2 0xA67 JUMPI PUSH1 0x0 DUP1 REVERT JUMPDEST DUP2 CALLDATALOAD PUSH2 0xA72 DUP2 PUSH2 0x9B7 JUMP JUMPDEST SWAP4 SWAP3 POP POP POP JUMP JUMPDEST PUSH1 0x0 PUSH1 0x20 DUP3 DUP5 SUB SLT ISZERO PUSH2 0xA8B JUMPI PUSH1 0x0 DUP1 REVERT JUMPDEST POP CALLDATALOAD SWAP2 SWAP1 POP JUMP JUMPDEST PUSH4 0x4E487B71 PUSH1 0xE0 SHL PUSH1 0x0 MSTORE PUSH1 0x11 PUSH1 0x4 MSTORE PUSH1 0x24 PUSH1 0x0 REVERT JUMPDEST DUP2 DUP2 SUB DUP2 DUP2 GT ISZERO PUSH2 0x97F JUMPI PUSH2 0x97F PUSH2 0xA92 JUMP JUMPDEST DUP1 DUP3 ADD DUP1 DUP3 GT ISZERO PUSH2 0x97F JUMPI PUSH2 0x97F PUSH2 0xA92 JUMP JUMPDEST DUP2 DUP4 MSTORE DUP2 DUP2 PUSH1 0x20 DUP6 ADD CALLDATACOPY POP PUSH1 0x0 DUP3 DUP3 ADD PUSH1 0x20 SWAP1 DUP2 ADD SWAP2 SWAP1 SWAP2 MSTORE PUSH1 0x1F SWAP1 SWAP2 ADD PUSH1 0x1F NOT AND SWAP1 SWAP2 ADD ADD SWAP1 JUMP JUMPDEST DUP4 DUP2 MSTORE PUSH1 0x60 PUSH1 0x20 DUP3 ADD MSTORE PUSH1 0x0 PUSH2 0xB11 PUSH1 0x60 DUP4 ADD DUP5 DUP7 PUSH2 0xACE JUMP JUMPDEST DUP3 DUP2 SUB PUSH1 0x40 SWAP4 DUP5 ADD MSTORE PUSH1 0x14 DUP2 MSTORE PUSH20 0x11185A5B1E481B1A5B5A5D08195E18D959591959 PUSH1 0x62 SHL PUSH1 0x20 DUP3 ADD MSTORE SWAP2 SWAP1 SWAP2 ADD SWAP5 SWAP4 POP POP POP POP JUMP JUMPDEST DUP6 DUP2 MSTORE PUSH1 0x80 PUSH1 0x20 DUP3 ADD MSTORE PUSH1 0x0 PUSH2 0xB61 PUSH1 0x80 DUP4 ADD DUP7 DUP9 PUSH2 0xACE JUMP JUMPDEST PUSH1 0x40 DUP4 ADD SWAP5 SWAP1 SWAP5 MSTORE POP PUSH1 0x60 ADD MSTORE SWAP4 SWAP3 POP POP POP JUMP INVALID LOG2 PUSH5 0x6970667358 0x22 SLT KECCAK256 MSTORE 0xA8 COINBASE 0xC1 PUSH9 0x85FBAE1F660650EB6B 0x23 NOT PUSH10 0x97E4E1831D93A98F44C7 PUSH5 0x914F4E7364 PUSH20 0x6F6C634300081400330000000000000000000000 "},"methodIdentifiers":{"acceptOwnership()":"79ba5097","currentState()":"0c3f6acf","dailyLimit()":"67eeba0c","deposit()":"d0e30db0","getWindowInfo()":"3a231a58","isWindowExpired()":"b2f398d1","owner()":"8da5cb5b","pendingLimit()":"91285683","pendingOwner()":"e30c3978","spend(address,uint256,string)":"6e3f5764","spentInWindow()":"db1f237f","transferOwnership(address)":"f2fde38b","updateLimit(uint256)":"fae0959a","windowDuration()":"5c11ff7a","windowStart()":"b0c2783a"}}}}}