{
  "_format": "hh-sol-artifact-1",
  "contractName": "SpendLimitWallet",
  "sourceName": "contracts/SpendLimitWallet.sol",
  "abi": [
    {
      "inputs": [
        {
          "internalType": "uint256",
          "name": "_dailyLimit",
          "type": "uint256"
        },
        {
          "internalType": "uint256",
          "name": "_windowDuration",
          "type": "uint256"
        }
      ],
      "stateMutability": "nonpayable",
      "type": "constructor"
    },
    {
      "inputs": [
        {
          "internalType": "uint256",
          "name": "requested",
          "type": "uint256"
        },
        {
          "internalType": "uint256",
          "name": "available",
          "type": "uint256"
        }
      ],
      "name": "InsufficientBalance",
      "type": "error"
    },
    {
      "inputs": [],
      "name": "InvalidRecipient",
      "type": "error"
    },
    {
      "inputs": [
        {
          "internalType": "uint256",
          "name": "requested",
          "type": "uint256"
        },
        {
          "internalType": "uint256",
          "name": "remaining",
          "type": "uint256"
        }
      ],
      "name": "LimitExceeded",
      "type": "error"
    },
    {
      "inputs": [],
      "name": "NotOwner",
      "type": "error"
    },
    {
      "inputs": [],
      "name": "NotPendingOwner",
      "type": "error"
    },
    {
      "inputs": [],
      "name": "TransferFailed",
      "type": "error"
    },
    {
      "inputs": [],
      "name": "WindowTooShort",
      "type": "error"
    },
    {
      "inputs": [],
      "name": "ZeroAddress",
      "type": "error"
    },
    {
      "inputs": [],
      "name": "ZeroAmount",
      "type": "error"
    },
    {
      "inputs": [],
      "name": "ZeroLimit",
      "type": "error"
    },
    {
      "anonymous": false,
      "inputs": [
        {
          "indexed": true,
          "internalType": "address",
          "name": "from",
          "type": "address"
        },
        {
          "indexed": false,
          "internalType": "uint256",
          "name": "amount",
          "type": "uint256"
        }
      ],
      "name": "Deposited",
      "type": "event"
    },
    {
      "anonymous": false,
      "inputs": [
        {
          "indexed": false,
          "internalType": "uint256",
          "name": "currentLimit",
          "type": "uint256"
        },
        {
          "indexed": false,
          "internalType": "uint256",
          "name": "newLimit",
          "type": "uint256"
        },
        {
          "indexed": false,
          "internalType": "uint256",
          "name": "effectiveAt",
          "type": "uint256"
        }
      ],
      "name": "LimitUpdateScheduled",
      "type": "event"
    },
    {
      "anonymous": false,
      "inputs": [
        {
          "indexed": false,
          "internalType": "uint256",
          "name": "oldLimit",
          "type": "uint256"
        },
        {
          "indexed": false,
          "internalType": "uint256",
          "name": "newLimit",
          "type": "uint256"
        }
      ],
      "name": "LimitUpdated",
      "type": "event"
    },
    {
      "anonymous": false,
      "inputs": [
        {
          "indexed": true,
          "internalType": "address",
          "name": "currentOwner",
          "type": "address"
        },
        {
          "indexed": true,
          "internalType": "address",
          "name": "pendingOwner",
          "type": "address"
        }
      ],
      "name": "OwnershipTransferInitiated",
      "type": "event"
    },
    {
      "anonymous": false,
      "inputs": [
        {
          "indexed": true,
          "internalType": "address",
          "name": "previousOwner",
          "type": "address"
        },
        {
          "indexed": true,
          "internalType": "address",
          "name": "newOwner",
          "type": "address"
        }
      ],
      "name": "OwnershipTransferred",
      "type": "event"
    },
    {
      "anonymous": false,
      "inputs": [
        {
          "indexed": true,
          "internalType": "address",
          "name": "to",
          "type": "address"
        },
        {
          "indexed": false,
          "internalType": "uint256",
          "name": "amount",
          "type": "uint256"
        },
        {
          "indexed": false,
          "internalType": "string",
          "name": "description",
          "type": "string"
        },
        {
          "indexed": false,
          "internalType": "uint256",
          "name": "spentTotal",
          "type": "uint256"
        },
        {
          "indexed": false,
          "internalType": "uint256",
          "name": "remaining",
          "type": "uint256"
        }
      ],
      "name": "SpendApproved",
      "type": "event"
    },
    {
      "anonymous": false,
      "inputs": [
        {
          "indexed": true,
          "internalType": "address",
          "name": "to",
          "type": "address"
        },
        {
          "indexed": false,
          "internalType": "uint256",
          "name": "amount",
          "type": "uint256"
        },
        {
          "indexed": false,
          "internalType": "string",
          "name": "description",
          "type": "string"
        },
        {
          "indexed": false,
          "internalType": "string",
          "name": "reason",
          "type": "string"
        }
      ],
      "name": "SpendRejected",
      "type": "event"
    },
    {
      "anonymous": false,
      "inputs": [
        {
          "indexed": false,
          "internalType": "uint256",
          "name": "newWindowStart",
          "type": "uint256"
        },
        {
          "indexed": false,
          "internalType": "uint256",
          "name": "previousSpent",
          "type": "uint256"
        }
      ],
      "name": "WindowReset",
      "type": "event"
    },
    {
      "inputs": [],
      "name": "acceptOwnership",
      "outputs": [],
      "stateMutability": "nonpayable",
      "type": "function"
    },
    {
      "inputs": [],
      "name": "currentState",
      "outputs": [
        {
          "internalType": "enum SpendLimitWallet.State",
          "name": "",
          "type": "uint8"
        }
      ],
      "stateMutability": "view",
      "type": "function"
    },
    {
      "inputs": [],
      "name": "dailyLimit",
      "outputs": [
        {
          "internalType": "uint256",
          "name": "",
          "type": "uint256"
        }
      ],
      "stateMutability": "view",
      "type": "function"
    },
    {
      "inputs": [],
      "name": "deposit",
      "outputs": [],
      "stateMutability": "payable",
      "type": "function"
    },
    {
      "inputs": [],
      "name": "getWindowInfo",
      "outputs": [
        {
          "internalType": "uint256",
          "name": "spent",
          "type": "uint256"
        },
        {
          "internalType": "uint256",
          "name": "remaining",
          "type": "uint256"
        },
        {
          "internalType": "uint256",
          "name": "windowEndsAt",
          "type": "uint256"
        },
        {
          "internalType": "enum SpendLimitWallet.State",
          "name": "state",
          "type": "uint8"
        },
        {
          "internalType": "uint256",
          "name": "balance",
          "type": "uint256"
        }
      ],
      "stateMutability": "view",
      "type": "function"
    },
    {
      "inputs": [],
      "name": "isWindowExpired",
      "outputs": [
        {
          "internalType": "bool",
          "name": "",
          "type": "bool"
        }
      ],
      "stateMutability": "view",
      "type": "function"
    },
    {
      "inputs": [],
      "name": "owner",
      "outputs": [
        {
          "internalType": "address",
          "name": "",
          "type": "address"
        }
      ],
      "stateMutability": "view",
      "type": "function"
    },
    {
      "inputs": [],
      "name": "pendingLimit",
      "outputs": [
        {
          "internalType": "uint256",
          "name": "",
          "type": "uint256"
        }
      ],
      "stateMutability": "view",
      "type": "function"
    },
    {
      "inputs": [],
      "name": "pendingOwner",
      "outputs": [
        {
          "internalType": "address",
          "name": "",
          "type": "address"
        }
      ],
      "stateMutability": "view",
      "type": "function"
    },
    {
      "inputs": [
        {
          "internalType": "address payable",
          "name": "to",
          "type": "address"
        },
        {
          "internalType": "uint256",
          "name": "amount",
          "type": "uint256"
        },
        {
          "internalType": "string",
          "name": "description",
          "type": "string"
        }
      ],
      "name": "spend",
      "outputs": [
        {
          "internalType": "bool",
          "name": "",
          "type": "bool"
        }
      ],
      "stateMutability": "nonpayable",
      "type": "function"
    },
    {
      "inputs": [],
      "name": "spentInWindow",
      "outputs": [
        {
          "internalType": "uint256",
          "name": "",
          "type": "uint256"
        }
      ],
      "stateMutability": "view",
      "type": "function"
    },
    {
      "inputs": [
        {
          "internalType": "address",
          "name": "newOwner",
          "type": "address"
        }
      ],
      "name": "transferOwnership",
      "outputs": [],
      "stateMutability": "nonpayable",
      "type": "function"
    },
    {
      "inputs": [
        {
          "internalType": "uint256",
          "name": "newLimit",
          "type": "uint256"
        }
      ],
      "name": "updateLimit",
      "outputs": [],
      "stateMutability": "nonpayable",
      "type": "function"
    },
    {
      "inputs": [],
      "name": "windowDuration",
      "outputs": [
        {
          "internalType": "uint256",
          "name": "",
          "type": "uint256"
        }
      ],
      "stateMutability": "view",
      "type": "function"
    },
    {
      "inputs": [],
      "name": "windowStart",
      "outputs": [
        {
          "internalType": "uint256",
          "name": "",
          "type": "uint256"
        }
      ],
      "stateMutability": "view",
      "type": "function"
    },
    {
      "stateMutability": "payable",
      "type": "receive"
    }
  ],
  "bytecode": "0x608060405234801561001057600080fd5b50604051610c87380380610c8783398101604081905261002f916100a9565b81600003610050576040516396cb8a7f60e01b815260040160405180910390fd5b6000811561005e5781610063565b620151805b9050610e1081101561008857604051639568563d60e01b815260040160405180910390fd5b600080546001600160a01b03191633179055600292909255506004556100cd565b600080604083850312156100bc57600080fd5b505080516020909101519092909150565b610bab806100dc6000396000f3fe6080604052600436106100ec5760003560e01c8063912856831161008a578063db1f237f11610059578063db1f237f14610285578063e30c39781461029b578063f2fde38b146102bb578063fae0959a146102db57600080fd5b8063912856831461023c578063b0c2783a14610252578063b2f398d114610268578063d0e30db01461027d57600080fd5b806367eeba0c116100c657806367eeba0c146101a95780636e3f5764146101bf57806379ba5097146101ef5780638da5cb5b1461020457600080fd5b80630c3f6acf146101345780633a231a581461015f5780635c11ff7a1461018557600080fd5b3661012f57341561012d5760405134815233907f2da466a7b24304f47e87fa2e1e5a81b9831ce54fec19055ce277ca2f39ba42c49060200160405180910390a25b005b600080fd5b34801561014057600080fd5b506101496102fb565b6040516101569190610971565b60405180910390f35b34801561016b57600080fd5b50610174610333565b604051610156959493929190610985565b34801561019157600080fd5b5061019b60045481565b604051908152602001610156565b3480156101b557600080fd5b5061019b60025481565b3480156101cb57600080fd5b506101df6101da3660046109cc565b6103c5565b6040519015158152602001610156565b3480156101fb57600080fd5b5061012d6105d0565b34801561021057600080fd5b50600054610224906001600160a01b031681565b6040516001600160a01b039091168152602001610156565b34801561024857600080fd5b5061019b60035481565b34801561025e57600080fd5b5061019b60065481565b34801561027457600080fd5b506101df61065f565b61012d610689565b34801561029157600080fd5b5061019b60055481565b3480156102a757600080fd5b50600154610224906001600160a01b031681565b3480156102c757600080fd5b5061012d6102d6366004610a55565b6106e1565b3480156102e757600080fd5b5061012d6102f6366004610a79565b610784565b600060055460001480610311575061031161065f565b1561031c5750600090565b6002546005541061032d5750600290565b50600190565b60008060008060008061034461065f565b905080806103525750600554155b61035e57600554610361565b60005b95508560025411610373576000610381565b856002546103819190610aa8565b94506000600654118015610393575080155b61039e5760006103ae565b6004546006546103ae9190610abb565b93506103b86102fb565b9250479150509091929394565b600080546001600160a01b031633146103f1576040516330cd747160e01b815260040160405180910390fd5b6001600160a01b03851661041857604051634e46966960e11b815260040160405180910390fd5b8360000361043957604051631f2a200560e01b815260040160405180910390fd5b478411156104675760405163cf47918160e01b81526004810185905247602482015260440160405180910390fd5b61046f610894565b60008460055461047f9190610abb565b90506002548111156104da57856001600160a01b03167f3e53416dc73490ccd0b17d9b7d230b4dbb731911f89d5306d5356df5a6322c5e8686866040516104c893929190610af7565b60405180910390a260009150506105c8565b6006546000036104e957426006555b60058190556002546000906104ff908390610aa8565b90506000876001600160a01b03168760405160006040518083038185875af1925050503d806000811461054e576040519150601f19603f3d011682016040523d82523d6000602084013e610553565b606091505b5050905080610575576040516312171d8360e31b815260040160405180910390fd5b876001600160a01b03167fa8abdfca1a6436f807a651fcb470bbe959a893c36ed764ba2168b0b04bc3b5c7888888600554876040516105b8959493929190610b47565b60405180910390a2600193505050505b949350505050565b6001546001600160a01b031633146105fb57604051630614e5c760e21b815260040160405180910390fd5b600154600080546040516001600160a01b0393841693909116917f8be0079c531659141344cd1fd0a4f28419497f9722a3daafe3b4186f6b6457e091a360018054600080546001600160a01b03199081166001600160a01b03841617909155169055565b60006006546000036106715750600190565b6004546006546106819190610abb565b421015905090565b346000036106aa57604051631f2a200560e01b815260040160405180910390fd5b60405134815233907f2da466a7b24304f47e87fa2e1e5a81b9831ce54fec19055ce277ca2f39ba42c49060200160405180910390a2565b6000546001600160a01b0316331461070c576040516330cd747160e01b815260040160405180910390fd5b6001600160a01b0381166107335760405163d92e233d60e01b815260040160405180910390fd5b600180546001600160a01b0319166001600160a01b0383811691821790925560008054604051929316917fb150023a879fd806e3599b6ca8ee3b60f0e360ab3846d128d67ebce1a391639a9190a350565b6000546001600160a01b031633146107af576040516330cd747160e01b815260040160405180910390fd5b806000036107d0576040516396cb8a7f60e01b815260040160405180910390fd5b60006006541180156107e757506107e561065f565b155b1561084a57806003819055507fe3f40c35b0fb366c281308ca874af8e1345ee3575d5b62157a8d476d8f2639c3600254826004546006546108289190610abb565b604080519384526020840192909252908201526060015b60405180910390a150565b60025460408051918252602082018390527f5857c36c84b5a997b303d2520c6d7f84ad6f68ebbaa63b916b470be6d3721a8b910160405180910390a1600281905560006003555b50565b61089c61065f565b15806108a85750600554155b156108af57565b6005805460009182905560069190915560035415610919577f5857c36c84b5a997b303d2520c6d7f84ad6f68ebbaa63b916b470be6d3721a8b600254600354604051610905929190918252602082015260400190565b60405180910390a160038054600255600090555b60408051428152602081018390527f50d926d13f7e01d114aa79ad3d8eb3dc4e0d60d51713f8634e9a4a088e0a45b5910161083f565b6003811061096d57634e487b7160e01b600052602160045260246000fd5b9052565b6020810161097f828461094f565b92915050565b858152602081018590526040810184905260a081016109a7606083018561094f565b8260808301529695505050505050565b6001600160a01b038116811461089157600080fd5b600080600080606085870312156109e257600080fd5b84356109ed816109b7565b935060208501359250604085013567ffffffffffffffff80821115610a1157600080fd5b818701915087601f830112610a2557600080fd5b813581811115610a3457600080fd5b886020828501011115610a4657600080fd5b95989497505060200194505050565b600060208284031215610a6757600080fd5b8135610a72816109b7565b9392505050565b600060208284031215610a8b57600080fd5b5035919050565b634e487b7160e01b600052601160045260246000fd5b8181038181111561097f5761097f610a92565b8082018082111561097f5761097f610a92565b81835281816020850137506000828201602090810191909152601f909101601f19169091010190565b838152606060208201526000610b11606083018486610ace565b828103604093840152601481527311185a5b1e481b1a5b5a5d08195e18d95959195960621b602082015291909101949350505050565b858152608060208201526000610b61608083018688610ace565b60408301949094525060600152939250505056fea264697066735822122052a841c16885fbae1f660650eb6b23196997e4e1831d93a98f44c764914f4e7364736f6c63430008140033",
  "linkReferences": {},
  "deployedLinkReferences": {}
}