{
  "_format": "hh-sol-artifact-1",
  "contractName": "SpendLimitWallet",
  "sourceName": "contracts/SpendLimitWallet.sol",
  "abi": [
    {
      "inputs": [
        {
          "internalType": "uint256",
          "name": "_dailyLimit",
          "type": "uint256"
        },
        {
          "internalType": "uint256",
          "name": "_windowDuration",
          "type": "uint256"
        }
      ],
      "stateMutability": "nonpayable",
      "type": "constructor"
    },
    {
      "inputs": [
        {
          "internalType": "uint256",
          "name": "requested",
          "type": "uint256"
        },
        {
          "internalType": "uint256",
          "name": "available",
          "type": "uint256"
        }
      ],
      "name": "InsufficientBalance",
      "type": "error"
    },
    {
      "inputs": [],
      "name": "InvalidRecipient",
      "type": "error"
    },
    {
      "inputs": [
        {
          "internalType": "uint256",
          "name": "requested",
          "type": "uint256"
        },
        {
          "internalType": "uint256",
          "name": "remaining",
          "type": "uint256"
        }
      ],
      "name": "LimitExceeded",
      "type": "error"
    },
    {
      "inputs": [],
      "name": "NotOwner",
      "type": "error"
    },
    {
      "inputs": [],
      "name": "ZeroAmount",
      "type": "error"
    },
    {
      "inputs": [],
      "name": "ZeroLimit",
      "type": "error"
    },
    {
      "anonymous": false,
      "inputs": [
        {
          "indexed": true,
          "internalType": "address",
          "name": "from",
          "type": "address"
        },
        {
          "indexed": false,
          "internalType": "uint256",
          "name": "amount",
          "type": "uint256"
        }
      ],
      "name": "Deposited",
      "type": "event"
    },
    {
      "anonymous": false,
      "inputs": [
        {
          "indexed": false,
          "internalType": "uint256",
          "name": "oldLimit",
          "type": "uint256"
        },
        {
          "indexed": false,
          "internalType": "uint256",
          "name": "newLimit",
          "type": "uint256"
        }
      ],
      "name": "LimitUpdated",
      "type": "event"
    },
    {
      "anonymous": false,
      "inputs": [
        {
          "indexed": true,
          "internalType": "address",
          "name": "to",
          "type": "address"
        },
        {
          "indexed": false,
          "internalType": "uint256",
          "name": "amount",
          "type": "uint256"
        },
        {
          "indexed": false,
          "internalType": "string",
          "name": "description",
          "type": "string"
        },
        {
          "indexed": false,
          "internalType": "uint256",
          "name": "spentTotal",
          "type": "uint256"
        },
        {
          "indexed": false,
          "internalType": "uint256",
          "name": "remaining",
          "type": "uint256"
        }
      ],
      "name": "SpendApproved",
      "type": "event"
    },
    {
      "anonymous": false,
      "inputs": [
        {
          "indexed": true,
          "internalType": "address",
          "name": "to",
          "type": "address"
        },
        {
          "indexed": false,
          "internalType": "uint256",
          "name": "amount",
          "type": "uint256"
        },
        {
          "indexed": false,
          "internalType": "string",
          "name": "description",
          "type": "string"
        },
        {
          "indexed": false,
          "internalType": "string",
          "name": "reason",
          "type": "string"
        }
      ],
      "name": "SpendRejected",
      "type": "event"
    },
    {
      "anonymous": false,
      "inputs": [
        {
          "indexed": false,
          "internalType": "uint256",
          "name": "newWindowStart",
          "type": "uint256"
        },
        {
          "indexed": false,
          "internalType": "uint256",
          "name": "previousSpent",
          "type": "uint256"
        }
      ],
      "name": "WindowReset",
      "type": "event"
    },
    {
      "inputs": [],
      "name": "currentState",
      "outputs": [
        {
          "internalType": "enum SpendLimitWallet.State",
          "name": "",
          "type": "uint8"
        }
      ],
      "stateMutability": "view",
      "type": "function"
    },
    {
      "inputs": [],
      "name": "dailyLimit",
      "outputs": [
        {
          "internalType": "uint256",
          "name": "",
          "type": "uint256"
        }
      ],
      "stateMutability": "view",
      "type": "function"
    },
    {
      "inputs": [],
      "name": "deposit",
      "outputs": [],
      "stateMutability": "payable",
      "type": "function"
    },
    {
      "inputs": [],
      "name": "getWindowInfo",
      "outputs": [
        {
          "internalType": "uint256",
          "name": "spent",
          "type": "uint256"
        },
        {
          "internalType": "uint256",
          "name": "remaining",
          "type": "uint256"
        },
        {
          "internalType": "uint256",
          "name": "windowEndsAt",
          "type": "uint256"
        },
        {
          "internalType": "enum SpendLimitWallet.State",
          "name": "state",
          "type": "uint8"
        },
        {
          "internalType": "uint256",
          "name": "balance",
          "type": "uint256"
        }
      ],
      "stateMutability": "view",
      "type": "function"
    },
    {
      "inputs": [],
      "name": "isWindowExpired",
      "outputs": [
        {
          "internalType": "bool",
          "name": "",
          "type": "bool"
        }
      ],
      "stateMutability": "view",
      "type": "function"
    },
    {
      "inputs": [],
      "name": "owner",
      "outputs": [
        {
          "internalType": "address",
          "name": "",
          "type": "address"
        }
      ],
      "stateMutability": "view",
      "type": "function"
    },
    {
      "inputs": [
        {
          "internalType": "address payable",
          "name": "to",
          "type": "address"
        },
        {
          "internalType": "uint256",
          "name": "amount",
          "type": "uint256"
        },
        {
          "internalType": "string",
          "name": "description",
          "type": "string"
        }
      ],
      "name": "spend",
      "outputs": [],
      "stateMutability": "nonpayable",
      "type": "function"
    },
    {
      "inputs": [],
      "name": "spentInWindow",
      "outputs": [
        {
          "internalType": "uint256",
          "name": "",
          "type": "uint256"
        }
      ],
      "stateMutability": "view",
      "type": "function"
    },
    {
      "inputs": [
        {
          "internalType": "uint256",
          "name": "newLimit",
          "type": "uint256"
        }
      ],
      "name": "updateLimit",
      "outputs": [],
      "stateMutability": "nonpayable",
      "type": "function"
    },
    {
      "inputs": [],
      "name": "windowDuration",
      "outputs": [
        {
          "internalType": "uint256",
          "name": "",
          "type": "uint256"
        }
      ],
      "stateMutability": "view",
      "type": "function"
    },
    {
      "inputs": [],
      "name": "windowStart",
      "outputs": [
        {
          "internalType": "uint256",
          "name": "",
          "type": "uint256"
        }
      ],
      "stateMutability": "view",
      "type": "function"
    },
    {
      "stateMutability": "payable",
      "type": "receive"
    }
  ],
  "bytecode": "0x608060405234801561001057600080fd5b5060405161092b38038061092b83398101604081905261002f91610083565b81600003610050576040516396cb8a7f60e01b815260040160405180910390fd5b600080546001600160a01b03191633179055600182905580156100735780610078565b620151805b600255506100a79050565b6000806040838503121561009657600080fd5b505080516020909101519092909150565b610875806100b66000396000f3fe6080604052600436106100a05760003560e01c80638da5cb5b116100645780638da5cb5b1461018e578063b0c2783a146101c6578063b2f398d1146101dc578063d0e30db014610201578063db1f237f14610209578063fae0959a1461021f57600080fd5b80630c3f6acf146100e15780633a231a581461010c5780635c11ff7a1461013257806367eeba0c146101565780636e3f57641461016c57600080fd5b366100dc5760405134815233907f2da466a7b24304f47e87fa2e1e5a81b9831ce54fec19055ce277ca2f39ba42c49060200160405180910390a2005b600080fd5b3480156100ed57600080fd5b506100f661023f565b6040516101039190610668565b60405180910390f35b34801561011857600080fd5b50610121610277565b60405161010395949392919061067c565b34801561013e57600080fd5b5061014860025481565b604051908152602001610103565b34801561016257600080fd5b5061014860015481565b34801561017857600080fd5b5061018c6101873660046106ae565b610309565b005b34801561019a57600080fd5b506000546101ae906001600160a01b031681565b6040516001600160a01b039091168152602001610103565b3480156101d257600080fd5b5061014860045481565b3480156101e857600080fd5b506101f1610558565b6040519015158152602001610103565b61018c610582565b34801561021557600080fd5b5061014860035481565b34801561022b57600080fd5b5061018c61023a366004610743565b6105b9565b6000600354600014806102555750610255610558565b156102605750600090565b600154600354106102715750600290565b50600190565b600080600080600080610288610558565b905080806102965750600354155b6102a2576003546102a5565b60005b955085600154116102b75760006102c5565b856001546102c59190610772565b945060006004541180156102d7575080155b6102e25760006102f2565b6002546004546102f29190610785565b93506102fc61023f565b9250479150509091929394565b6000546001600160a01b03163314610334576040516330cd747160e01b815260040160405180910390fd5b6001600160a01b03841661035b57604051634e46966960e11b815260040160405180910390fd5b8260000361037c57604051631f2a200560e01b815260040160405180910390fd5b478311156103ab5760405163cf47918160e01b8152600481018490524760248201526044015b60405180910390fd5b6103b3610558565b80156103c157506000600354115b1561040e576003546040805142815260208101929092527f50d926d13f7e01d114aa79ad3d8eb3dc4e0d60d51713f8634e9a4a088e0a45b5910160405180910390a1600060038190556004555b60045460000361041d57426004555b60008360035461042d9190610785565b90506001548111156104b557600060035460015461044b9190610772565b9050856001600160a01b03167f3e53416dc73490ccd0b17d9b7d230b4dbb731911f89d5306d5356df5a6322c5e86868660405161048a939291906107c1565b60405180910390a2604051634779077960e11b815260048101869052602481018290526044016103a2565b60038190556001546000906104cb908390610772565b6040519091506001600160a01b0387169086156108fc029087906000818181858888f19350505050158015610504573d6000803e3d6000fd5b50856001600160a01b03167fa8abdfca1a6436f807a651fcb470bbe959a893c36ed764ba2168b0b04bc3b5c786868660035486604051610548959493929190610811565b60405180910390a2505050505050565b600060045460000361056a5750600190565b60025460045461057a9190610785565b421015905090565b60405134815233907f2da466a7b24304f47e87fa2e1e5a81b9831ce54fec19055ce277ca2f39ba42c49060200160405180910390a2565b6000546001600160a01b031633146105e4576040516330cd747160e01b815260040160405180910390fd5b80600003610605576040516396cb8a7f60e01b815260040160405180910390fd5b60015460408051918252602082018390527f5857c36c84b5a997b303d2520c6d7f84ad6f68ebbaa63b916b470be6d3721a8b910160405180910390a1600155565b6003811061066457634e487b7160e01b600052602160045260246000fd5b9052565b602081016106768284610646565b92915050565b858152602081018590526040810184905260a0810161069e6060830185610646565b8260808301529695505050505050565b600080600080606085870312156106c457600080fd5b84356001600160a01b03811681146106db57600080fd5b935060208501359250604085013567ffffffffffffffff808211156106ff57600080fd5b818701915087601f83011261071357600080fd5b81358181111561072257600080fd5b88602082850101111561073457600080fd5b95989497505060200194505050565b60006020828403121561075557600080fd5b5035919050565b634e487b7160e01b600052601160045260246000fd5b818103818111156106765761067661075c565b808201808211156106765761067661075c565b81835281816020850137506000828201602090810191909152601f909101601f19169091010190565b8381526060602082015260006107db606083018486610798565b828103604093840152601481527311185a5b1e481b1a5b5a5d08195e18d95959195960621b602082015291909101949350505050565b85815260806020820152600061082b608083018688610798565b60408301949094525060600152939250505056fea26469706673582212203eb66a67d85021f20175ffd3a0feb8b4e8f08b66f45cf29ae2d2df228927b68164736f6c63430008140033",
  "linkReferences": {},
  "deployedLinkReferences": {}
}